{
  "_format": "hh-sol-artifact-1",
  "contractName": "NFTAccess",
  "sourceName": "contracts/06_NFTAccess.sol",
  "abi": [
    {
      "inputs": [],
      "stateMutability": "nonpayable",
      "type": "constructor"
    },
    {
      "inputs": [
        {
          "internalType": "address",
          "name": "sender",
          "type": "address"
        },
        {
          "internalType": "uint256",
          "name": "balance",
          "type": "uint256"
        },
        {
          "internalType": "uint256",
          "name": "needed",
          "type": "uint256"
        },
        {
          "internalType": "uint256",
          "name": "tokenId",
          "type": "uint256"
        }
      ],
      "name": "ERC1155InsufficientBalance",
      "type": "error"
    },
    {
      "inputs": [
        {
          "internalType": "address",
          "name": "approver",
          "type": "address"
        }
      ],
      "name": "ERC1155InvalidApprover",
      "type": "error"
    },
    {
      "inputs": [
        {
          "internalType": "uint256",
          "name": "idsLength",
          "type": "uint256"
        },
        {
          "internalType": "uint256",
          "name": "valuesLength",
          "type": "uint256"
        }
      ],
      "name": "ERC1155InvalidArrayLength",
      "type": "error"
    },
    {
      "inputs": [
        {
          "internalType": "address",
          "name": "operator",
          "type": "address"
        }
      ],
      "name": "ERC1155InvalidOperator",
      "type": "error"
    },
    {
      "inputs": [
        {
          "internalType": "address",
          "name": "receiver",
          "type": "address"
        }
      ],
      "name": "ERC1155InvalidReceiver",
      "type": "error"
    },
    {
      "inputs": [
        {
          "internalType": "address",
          "name": "sender",
          "type": "address"
        }
      ],
      "name": "ERC1155InvalidSender",
      "type": "error"
    },
    {
      "inputs": [
        {
          "internalType": "address",
          "name": "operator",
          "type": "address"
        },
        {
          "internalType": "address",
          "name": "owner",
          "type": "address"
        }
      ],
      "name": "ERC1155MissingApprovalForAll",
      "type": "error"
    },
    {
      "inputs": [
        {
          "internalType": "address",
          "name": "owner",
          "type": "address"
        }
      ],
      "name": "OwnableInvalidOwner",
      "type": "error"
    },
    {
      "inputs": [
        {
          "internalType": "address",
          "name": "account",
          "type": "address"
        }
      ],
      "name": "OwnableUnauthorizedAccount",
      "type": "error"
    },
    {
      "anonymous": false,
      "inputs": [
        {
          "indexed": true,
          "internalType": "address",
          "name": "account",
          "type": "address"
        },
        {
          "indexed": true,
          "internalType": "address",
          "name": "operator",
          "type": "address"
        },
        {
          "indexed": false,
          "internalType": "bool",
          "name": "approved",
          "type": "bool"
        }
      ],
      "name": "ApprovalForAll",
      "type": "event"
    },
    {
      "anonymous": false,
      "inputs": [
        {
          "indexed": true,
          "internalType": "uint256",
          "name": "id",
          "type": "uint256"
        },
        {
          "indexed": true,
          "internalType": "address",
          "name": "buyer",
          "type": "address"
        },
        {
          "indexed": false,
          "internalType": "uint256",
          "name": "amount",
          "type": "uint256"
        }
      ],
      "name": "Minted",
      "type": "event"
    },
    {
      "anonymous": false,
      "inputs": [
        {
          "indexed": true,
          "internalType": "address",
          "name": "previousOwner",
          "type": "address"
        },
        {
          "indexed": true,
          "internalType": "address",
          "name": "newOwner",
          "type": "address"
        }
      ],
      "name": "OwnershipTransferStarted",
      "type": "event"
    },
    {
      "anonymous": false,
      "inputs": [
        {
          "indexed": true,
          "internalType": "address",
          "name": "previousOwner",
          "type": "address"
        },
        {
          "indexed": true,
          "internalType": "address",
          "name": "newOwner",
          "type": "address"
        }
      ],
      "name": "OwnershipTransferred",
      "type": "event"
    },
    {
      "anonymous": false,
      "inputs": [
        {
          "indexed": true,
          "internalType": "uint256",
          "name": "id",
          "type": "uint256"
        },
        {
          "indexed": true,
          "internalType": "address",
          "name": "creator",
          "type": "address"
        },
        {
          "indexed": false,
          "internalType": "string",
          "name": "uri",
          "type": "string"
        },
        {
          "indexed": false,
          "internalType": "uint256",
          "name": "maxSupply",
          "type": "uint256"
        },
        {
          "indexed": false,
          "internalType": "uint256",
          "name": "price",
          "type": "uint256"
        }
      ],
      "name": "TierCreated",
      "type": "event"
    },
    {
      "anonymous": false,
      "inputs": [
        {
          "indexed": true,
          "internalType": "address",
          "name": "operator",
          "type": "address"
        },
        {
          "indexed": true,
          "internalType": "address",
          "name": "from",
          "type": "address"
        },
        {
          "indexed": true,
          "internalType": "address",
          "name": "to",
          "type": "address"
        },
        {
          "indexed": false,
          "internalType": "uint256[]",
          "name": "ids",
          "type": "uint256[]"
        },
        {
          "indexed": false,
          "internalType": "uint256[]",
          "name": "values",
          "type": "uint256[]"
        }
      ],
      "name": "TransferBatch",
      "type": "event"
    },
    {
      "anonymous": false,
      "inputs": [
        {
          "indexed": true,
          "internalType": "address",
          "name": "operator",
          "type": "address"
        },
        {
          "indexed": true,
          "internalType": "address",
          "name": "from",
          "type": "address"
        },
        {
          "indexed": true,
          "internalType": "address",
          "name": "to",
          "type": "address"
        },
        {
          "indexed": false,
          "internalType": "uint256",
          "name": "id",
          "type": "uint256"
        },
        {
          "indexed": false,
          "internalType": "uint256",
          "name": "value",
          "type": "uint256"
        }
      ],
      "name": "TransferSingle",
      "type": "event"
    },
    {
      "anonymous": false,
      "inputs": [
        {
          "indexed": false,
          "internalType": "string",
          "name": "value",
          "type": "string"
        },
        {
          "indexed": true,
          "internalType": "uint256",
          "name": "id",
          "type": "uint256"
        }
      ],
      "name": "URI",
      "type": "event"
    },
    {
      "inputs": [],
      "name": "acceptOwnership",
      "outputs": [],
      "stateMutability": "nonpayable",
      "type": "function"
    },
    {
      "inputs": [
        {
          "internalType": "address",
          "name": "account",
          "type": "address"
        },
        {
          "internalType": "uint256",
          "name": "id",
          "type": "uint256"
        }
      ],
      "name": "balanceOf",
      "outputs": [
        {
          "internalType": "uint256",
          "name": "",
          "type": "uint256"
        }
      ],
      "stateMutability": "view",
      "type": "function"
    },
    {
      "inputs": [
        {
          "internalType": "address[]",
          "name": "accounts",
          "type": "address[]"
        },
        {
          "internalType": "uint256[]",
          "name": "ids",
          "type": "uint256[]"
        }
      ],
      "name": "balanceOfBatch",
      "outputs": [
        {
          "internalType": "uint256[]",
          "name": "",
          "type": "uint256[]"
        }
      ],
      "stateMutability": "view",
      "type": "function"
    },
    {
      "inputs": [
        {
          "internalType": "string",
          "name": "_uri",
          "type": "string"
        },
        {
          "internalType": "uint256",
          "name": "_maxSupply",
          "type": "uint256"
        },
        {
          "internalType": "uint256",
          "name": "_priceWei",
          "type": "uint256"
        }
      ],
      "name": "createTier",
      "outputs": [
        {
          "internalType": "uint256",
          "name": "id",
          "type": "uint256"
        }
      ],
      "stateMutability": "nonpayable",
      "type": "function"
    },
    {
      "inputs": [
        {
          "internalType": "uint256",
          "name": "",
          "type": "uint256"
        }
      ],
      "name": "creatorOf",
      "outputs": [
        {
          "internalType": "address",
          "name": "",
          "type": "address"
        }
      ],
      "stateMutability": "view",
      "type": "function"
    },
    {
      "inputs": [
        {
          "internalType": "address",
          "name": "account",
          "type": "address"
        },
        {
          "internalType": "address",
          "name": "operator",
          "type": "address"
        }
      ],
      "name": "isApprovedForAll",
      "outputs": [
        {
          "internalType": "bool",
          "name": "",
          "type": "bool"
        }
      ],
      "stateMutability": "view",
      "type": "function"
    },
    {
      "inputs": [
        {
          "internalType": "uint256",
          "name": "_id",
          "type": "uint256"
        },
        {
          "internalType": "uint256",
          "name": "_amount",
          "type": "uint256"
        }
      ],
      "name": "mint",
      "outputs": [],
      "stateMutability": "payable",
      "type": "function"
    },
    {
      "inputs": [],
      "name": "nextId",
      "outputs": [
        {
          "internalType": "uint256",
          "name": "",
          "type": "uint256"
        }
      ],
      "stateMutability": "view",
      "type": "function"
    },
    {
      "inputs": [],
      "name": "owner",
      "outputs": [
        {
          "internalType": "address",
          "name": "",
          "type": "address"
        }
      ],
      "stateMutability": "view",
      "type": "function"
    },
    {
      "inputs": [],
      "name": "pendingOwner",
      "outputs": [
        {
          "internalType": "address",
          "name": "",
          "type": "address"
        }
      ],
      "stateMutability": "view",
      "type": "function"
    },
    {
      "inputs": [],
      "name": "renounceOwnership",
      "outputs": [],
      "stateMutability": "nonpayable",
      "type": "function"
    },
    {
      "inputs": [
        {
          "internalType": "address",
          "name": "from",
          "type": "address"
        },
        {
          "internalType": "address",
          "name": "to",
          "type": "address"
        },
        {
          "internalType": "uint256[]",
          "name": "ids",
          "type": "uint256[]"
        },
        {
          "internalType": "uint256[]",
          "name": "values",
          "type": "uint256[]"
        },
        {
          "internalType": "bytes",
          "name": "data",
          "type": "bytes"
        }
      ],
      "name": "safeBatchTransferFrom",
      "outputs": [],
      "stateMutability": "nonpayable",
      "type": "function"
    },
    {
      "inputs": [
        {
          "internalType": "address",
          "name": "from",
          "type": "address"
        },
        {
          "internalType": "address",
          "name": "to",
          "type": "address"
        },
        {
          "internalType": "uint256",
          "name": "id",
          "type": "uint256"
        },
        {
          "internalType": "uint256",
          "name": "value",
          "type": "uint256"
        },
        {
          "internalType": "bytes",
          "name": "data",
          "type": "bytes"
        }
      ],
      "name": "safeTransferFrom",
      "outputs": [],
      "stateMutability": "nonpayable",
      "type": "function"
    },
    {
      "inputs": [
        {
          "internalType": "address",
          "name": "operator",
          "type": "address"
        },
        {
          "internalType": "bool",
          "name": "approved",
          "type": "bool"
        }
      ],
      "name": "setApprovalForAll",
      "outputs": [],
      "stateMutability": "nonpayable",
      "type": "function"
    },
    {
      "inputs": [
        {
          "internalType": "bytes4",
          "name": "interfaceId",
          "type": "bytes4"
        }
      ],
      "name": "supportsInterface",
      "outputs": [
        {
          "internalType": "bool",
          "name": "",
          "type": "bool"
        }
      ],
      "stateMutability": "view",
      "type": "function"
    },
    {
      "inputs": [
        {
          "internalType": "address",
          "name": "newOwner",
          "type": "address"
        }
      ],
      "name": "transferOwnership",
      "outputs": [],
      "stateMutability": "nonpayable",
      "type": "function"
    },
    {
      "inputs": [
        {
          "internalType": "uint256",
          "name": "tokenId",
          "type": "uint256"
        }
      ],
      "name": "uri",
      "outputs": [
        {
          "internalType": "string",
          "name": "",
          "type": "string"
        }
      ],
      "stateMutability": "view",
      "type": "function"
    }
  ],
  "bytecode": "0x60806040526040518060200160405280600081525060039081610022919061043d565b50600160075534801561003457600080fd5b503360405180602001604052806000815250610055816100dd60201b60201c565b50600073ffffffffffffffffffffffffffffffffffffffff168173ffffffffffffffffffffffffffffffffffffffff16036100c85760006040517f1e4fbdf70000000000000000000000000000000000000000000000000000000081526004016100bf9190610550565b60405180910390fd5b6100d7816100f060201b60201c565b5061056b565b80600290816100ec919061043d565b5050565b600660006101000a81549073ffffffffffffffffffffffffffffffffffffffff02191690556101248161012760201b60201c565b50565b6000600560009054906101000a900473ffffffffffffffffffffffffffffffffffffffff16905081600560006101000a81548173ffffffffffffffffffffffffffffffffffffffff021916908373ffffffffffffffffffffffffffffffffffffffff1602179055508173ffffffffffffffffffffffffffffffffffffffff168173ffffffffffffffffffffffffffffffffffffffff167f8be0079c531659141344cd1fd0a4f28419497f9722a3daafe3b4186f6b6457e060405160405180910390a35050565b600081519050919050565b7f4e487b7100000000000000000000000000000000000000000000000000000000600052604160045260246000fd5b7f4e487b7100000000000000000000000000000000000000000000000000000000600052602260045260246000fd5b6000600282049050600182168061026e57607f821691505b60208210810361028157610280610227565b5b50919050565b60008190508160005260206000209050919050565b60006020601f8301049050919050565b600082821b905092915050565b6000600883026102e97fffffffffffffffffffffffffffffffffffffffffffffffffffffffffffffffff826102ac565b6102f386836102ac565b95508019841693508086168417925050509392505050565b6000819050919050565b6000819050919050565b600061033a6103356103308461030b565b610315565b61030b565b9050919050565b6000819050919050565b6103548361031f565b61036861036082610341565b8484546102b9565b825550505050565b600090565b61037d610370565b61038881848461034b565b505050565b5b818110156103ac576103a1600082610375565b60018101905061038e565b5050565b601f8211156103f1576103c281610287565b6103cb8461029c565b810160208510156103da578190505b6103ee6103e68561029c565b83018261038d565b50505b505050565b600082821c905092915050565b6000610414600019846008026103f6565b1980831691505092915050565b600061042d8383610403565b9150826002028217905092915050565b610446826101ed565b67ffffffffffffffff81111561045f5761045e6101f8565b5b6104698254610256565b6104748282856103b0565b600060209050601f8311600181146104a75760008415610495578287015190505b61049f8582610421565b865550610507565b601f1984166104b586610287565b60005b828110156104dd578489015182556001820191506020850194506020810190506104b8565b868310156104fa57848901516104f6601f891682610403565b8355505b6001600288020188555050505b505050505050565b600073ffffffffffffffffffffffffffffffffffffffff82169050919050565b600061053a8261050f565b9050919050565b61054a8161052f565b82525050565b60006020820190506105656000830184610541565b92915050565b612e618061057a6000396000f3fe6080604052600436106100fd5760003560e01c806361b8ce8c11610095578063a22cb46511610064578063a22cb46514610339578063e30c397814610362578063e985e9c51461038d578063f242432a146103ca578063f2fde38b146103f3576100fd565b806361b8ce8c146102b5578063715018a6146102e057806379ba5097146102f75780638da5cb5b1461030e576100fd565b80631b2ef1ca116100d15780631b2ef1ca146101f65780632eb2c2d6146102125780634e1273f41461023b578063589a174314610278576100fd565b8062fdd58e1461010257806301ffc9a71461013f5780630e89341c1461017c578063151b40de146101b9575b600080fd5b34801561010e57600080fd5b5061012960048036038101906101249190611cfc565b61041c565b6040516101369190611d4b565b60405180910390f35b34801561014b57600080fd5b5061016660048036038101906101619190611dbe565b610476565b6040516101739190611e06565b60405180910390f35b34801561018857600080fd5b506101a3600480360381019061019e9190611e21565b610558565b6040516101b09190611ede565b60405180910390f35b3480156101c557600080fd5b506101e060048036038101906101db9190611f65565b61063d565b6040516101ed9190611d4b565b60405180910390f35b610210600480360381019061020b9190611fd9565b610755565b005b34801561021e57600080fd5b506102396004803603810190610234919061220c565b610865565b005b34801561024757600080fd5b50610262600480360381019061025d919061239e565b61090d565b60405161026f91906124d4565b60405180910390f35b34801561028457600080fd5b5061029f600480360381019061029a9190611e21565b610a16565b6040516102ac9190612505565b60405180910390f35b3480156102c157600080fd5b506102ca610a49565b6040516102d79190611d4b565b60405180910390f35b3480156102ec57600080fd5b506102f5610a4f565b005b34801561030357600080fd5b5061030c610a63565b005b34801561031a57600080fd5b50610323610af2565b6040516103309190612505565b60405180910390f35b34801561034557600080fd5b50610360600480360381019061035b919061254c565b610b1c565b005b34801561036e57600080fd5b50610377610b32565b6040516103849190612505565b60405180910390f35b34801561039957600080fd5b506103b460048036038101906103af919061258c565b610b5c565b6040516103c19190611e06565b60405180910390f35b3480156103d657600080fd5b506103f160048036038101906103ec91906125cc565b610bf0565b005b3480156103ff57600080fd5b5061041a60048036038101906104159190612663565b610c98565b005b600080600083815260200190815260200160002060008473ffffffffffffffffffffffffffffffffffffffff1673ffffffffffffffffffffffffffffffffffffffff16815260200190815260200160002054905092915050565b60007fd9b67a26000000000000000000000000000000000000000000000000000000007bffffffffffffffffffffffffffffffffffffffffffffffffffffffff1916827bffffffffffffffffffffffffffffffffffffffffffffffffffffffff1916148061054157507f0e89341c000000000000000000000000000000000000000000000000000000007bffffffffffffffffffffffffffffffffffffffffffffffffffffffff1916827bffffffffffffffffffffffffffffffffffffffffffffffffffffffff1916145b80610551575061055082610d45565b5b9050919050565b6060600060046000848152602001908152602001600020805461057a906126bf565b80601f01602080910402602001604051908101604052809291908181526020018280546105a6906126bf565b80156105f35780601f106105c8576101008083540402835291602001916105f3565b820191906000526020600020905b8154815290600101906020018083116105d657829003601f168201915b5050505050905060008151116106115761060c83610daf565b610635565b6003816040516020016106259291906127c4565b6040516020818303038152906040525b915050919050565b60006007600081548092919061065290612817565b919050559050336008600083815260200190815260200160002060006101000a81548173ffffffffffffffffffffffffffffffffffffffff021916908373ffffffffffffffffffffffffffffffffffffffff1602179055506106f88186868080601f016020809104026020016040519081016040528093929190818152602001838380828437600081840152601f19601f82011690508083019250505050505050610e43565b3373ffffffffffffffffffffffffffffffffffffffff16817f6fe5382f32b9956a7937db7530af61bfa8a93b2bd71e59f7df3edc9e07229f3e87878787604051610745949392919061288c565b60405180910390a3949350505050565b600073ffffffffffffffffffffffffffffffffffffffff166008600084815260200190815260200160002060009054906101000a900473ffffffffffffffffffffffffffffffffffffffff1673ffffffffffffffffffffffffffffffffffffffff16036107f7576040517f08c379a00000000000000000000000000000000000000000000000000000000081526004016107ee90612918565b60405180910390fd5b61081233838360405180602001604052806000815250610ea8565b3373ffffffffffffffffffffffffffffffffffffffff16827fc9d0543a84d3510329c0783b91576878ceb484e8699944cb5610c3436b3b8e39836040516108599190611d4b565b60405180910390a35050565b600061086f610f41565b90508073ffffffffffffffffffffffffffffffffffffffff168673ffffffffffffffffffffffffffffffffffffffff16141580156108b457506108b28682610b5c565b155b156108f85780866040517fe237d9220000000000000000000000000000000000000000000000000000000081526004016108ef929190612938565b60405180910390fd5b6109058686868686610f49565b505050505050565b6060815183511461095957815183516040517f5b059991000000000000000000000000000000000000000000000000000000008152600401610950929190612961565b60405180910390fd5b6000835167ffffffffffffffff81111561097657610975612019565b5b6040519080825280602002602001820160405280156109a45781602001602082028036833780820191505090505b50905060005b8451811015610a0b576109e16109c9828761104190919063ffffffff16565b6109dc838761105590919063ffffffff16565b61041c565b8282815181106109f4576109f361298a565b5b6020026020010181815250508060010190506109aa565b508091505092915050565b60086020528060005260406000206000915054906101000a900473ffffffffffffffffffffffffffffffffffffffff1681565b60075481565b610a57611069565b610a6160006110f0565b565b6000610a6d610f41565b90508073ffffffffffffffffffffffffffffffffffffffff16610a8e610b32565b73ffffffffffffffffffffffffffffffffffffffff1614610ae657806040517f118cdaa7000000000000000000000000000000000000000000000000000000008152600401610add9190612505565b60405180910390fd5b610aef816110f0565b50565b6000600560009054906101000a900473ffffffffffffffffffffffffffffffffffffffff16905090565b610b2e610b27610f41565b8383611121565b5050565b6000600660009054906101000a900473ffffffffffffffffffffffffffffffffffffffff16905090565b6000600160008473ffffffffffffffffffffffffffffffffffffffff1673ffffffffffffffffffffffffffffffffffffffff16815260200190815260200160002060008373ffffffffffffffffffffffffffffffffffffffff1673ffffffffffffffffffffffffffffffffffffffff16815260200190815260200160002060009054906101000a900460ff16905092915050565b6000610bfa610f41565b90508073ffffffffffffffffffffffffffffffffffffffff168673ffffffffffffffffffffffffffffffffffffffff1614158015610c3f5750610c3d8682610b5c565b155b15610c835780866040517fe237d922000000000000000000000000000000000000000000000000000000008152600401610c7a929190612938565b60405180910390fd5b610c908686868686611291565b505050505050565b610ca0611069565b80600660006101000a81548173ffffffffffffffffffffffffffffffffffffffff021916908373ffffffffffffffffffffffffffffffffffffffff1602179055508073ffffffffffffffffffffffffffffffffffffffff16610d00610af2565b73ffffffffffffffffffffffffffffffffffffffff167f38d16b8cac22d99fc7c124b9cd0de2d3fa1faef420bfe791d8c362d765e2270060405160405180910390a350565b60007f01ffc9a7000000000000000000000000000000000000000000000000000000007bffffffffffffffffffffffffffffffffffffffffffffffffffffffff1916827bffffffffffffffffffffffffffffffffffffffffffffffffffffffff1916149050919050565b606060028054610dbe906126bf565b80601f0160208091040260200160405190810160405280929190818152602001828054610dea906126bf565b8015610e375780601f10610e0c57610100808354040283529160200191610e37565b820191906000526020600020905b815481529060010190602001808311610e1a57829003601f168201915b50505050509050919050565b80600460008481526020019081526020016000209081610e639190612b50565b50817f6bb7ff708619ba0610cba295a58592e0451dee2622938c8755667688daf3529b610e8f84610558565b604051610e9c9190611ede565b60405180910390a25050565b600073ffffffffffffffffffffffffffffffffffffffff168473ffffffffffffffffffffffffffffffffffffffff1603610f1a5760006040517f57f447ce000000000000000000000000000000000000000000000000000000008152600401610f119190612505565b60405180910390fd5b600080610f27858561139c565b91509150610f396000878484876113cc565b505050505050565b600033905090565b600073ffffffffffffffffffffffffffffffffffffffff168473ffffffffffffffffffffffffffffffffffffffff1603610fbb5760006040517f57f447ce000000000000000000000000000000000000000000000000000000008152600401610fb29190612505565b60405180910390fd5b600073ffffffffffffffffffffffffffffffffffffffff168573ffffffffffffffffffffffffffffffffffffffff160361102d5760006040517f01a835140000000000000000000000000000000000000000000000000000000081526004016110249190612505565b60405180910390fd5b61103a85858585856113cc565b5050505050565b600060208202602084010151905092915050565b600060208202602084010151905092915050565b611071610f41565b73ffffffffffffffffffffffffffffffffffffffff1661108f610af2565b73ffffffffffffffffffffffffffffffffffffffff16146110ee576110b2610f41565b6040517f118cdaa70000000000000000000000000000000000000000000000000000000081526004016110e59190612505565b60405180910390fd5b565b600660006101000a81549073ffffffffffffffffffffffffffffffffffffffff021916905561111e8161147e565b50565b600073ffffffffffffffffffffffffffffffffffffffff168273ffffffffffffffffffffffffffffffffffffffff16036111935760006040517fced3e10000000000000000000000000000000000000000000000000000000000815260040161118a9190612505565b60405180910390fd5b80600160008573ffffffffffffffffffffffffffffffffffffffff1673ffffffffffffffffffffffffffffffffffffffff16815260200190815260200160002060008473ffffffffffffffffffffffffffffffffffffffff1673ffffffffffffffffffffffffffffffffffffffff16815260200190815260200160002060006101000a81548160ff0219169083151502179055508173ffffffffffffffffffffffffffffffffffffffff168373ffffffffffffffffffffffffffffffffffffffff167f17307eab39ab6107e8899845ad3d59bd9653f200f220920489ca2b5937696c31836040516112849190611e06565b60405180910390a3505050565b600073ffffffffffffffffffffffffffffffffffffffff168473ffffffffffffffffffffffffffffffffffffffff16036113035760006040517f57f447ce0000000000000000000000000000000000000000000000000000000081526004016112fa9190612505565b60405180910390fd5b600073ffffffffffffffffffffffffffffffffffffffff168573ffffffffffffffffffffffffffffffffffffffff16036113755760006040517f01a8351400000000000000000000000000000000000000000000000000000000815260040161136c9190612505565b60405180910390fd5b600080611382858561139c565b9150915061139387878484876113cc565b50505050505050565b60608060405191506001825283602083015260408201905060018152826020820152604081016040529250929050565b6113d885858585611544565b600073ffffffffffffffffffffffffffffffffffffffff168473ffffffffffffffffffffffffffffffffffffffff1614611477576000611416610f41565b9050600184510361146657600061143760008661105590919063ffffffff16565b9050600061144f60008661105590919063ffffffff16565b905061145f8389898585896118ec565b5050611475565b611474818787878787611aa0565b5b505b5050505050565b6000600560009054906101000a900473ffffffffffffffffffffffffffffffffffffffff16905081600560006101000a81548173ffffffffffffffffffffffffffffffffffffffff021916908373ffffffffffffffffffffffffffffffffffffffff1602179055508173ffffffffffffffffffffffffffffffffffffffff168173ffffffffffffffffffffffffffffffffffffffff167f8be0079c531659141344cd1fd0a4f28419497f9722a3daafe3b4186f6b6457e060405160405180910390a35050565b805182511461158e57815181516040517f5b059991000000000000000000000000000000000000000000000000000000008152600401611585929190612961565b60405180910390fd5b6000611598610f41565b905060005b83518110156117a75760006115bb828661105590919063ffffffff16565b905060006115d2838661105590919063ffffffff16565b9050600073ffffffffffffffffffffffffffffffffffffffff168873ffffffffffffffffffffffffffffffffffffffff16146116ff57600080600084815260200190815260200160002060008a73ffffffffffffffffffffffffffffffffffffffff1673ffffffffffffffffffffffffffffffffffffffff168152602001908152602001600020549050818110156116a757888183856040517f03dee4c500000000000000000000000000000000000000000000000000000000815260040161169e9493929190612c22565b60405180910390fd5b81810360008085815260200190815260200160002060008b73ffffffffffffffffffffffffffffffffffffffff1673ffffffffffffffffffffffffffffffffffffffff16815260200190815260200160002081905550505b600073ffffffffffffffffffffffffffffffffffffffff168773ffffffffffffffffffffffffffffffffffffffff161461179a578060008084815260200190815260200160002060008973ffffffffffffffffffffffffffffffffffffffff1673ffffffffffffffffffffffffffffffffffffffff16815260200190815260200160002060008282546117929190612c67565b925050819055505b505080600101905061159d565b5060018351036118665760006117c760008561105590919063ffffffff16565b905060006117df60008561105590919063ffffffff16565b90508573ffffffffffffffffffffffffffffffffffffffff168773ffffffffffffffffffffffffffffffffffffffff168473ffffffffffffffffffffffffffffffffffffffff167fc3d58168c5ae7397731d063d5bbf3d657854427343f4c083240f7aacaa2d0f628585604051611857929190612961565b60405180910390a450506118e5565b8373ffffffffffffffffffffffffffffffffffffffff168573ffffffffffffffffffffffffffffffffffffffff168273ffffffffffffffffffffffffffffffffffffffff167f4a39dc06d4c0dbc64b70af90fd698a233a518aa5d07e595d983b8c0526c8f7fb86866040516118dc929190612c9b565b60405180910390a45b5050505050565b60008473ffffffffffffffffffffffffffffffffffffffff163b1115611a98578373ffffffffffffffffffffffffffffffffffffffff1663f23a6e6187878686866040518663ffffffff1660e01b815260040161194d959493929190612d27565b6020604051808303816000875af192505050801561198957506040513d601f19601f820116820180604052508101906119869190612d96565b60015b611a0d573d80600081146119b9576040519150601f19603f3d011682016040523d82523d6000602084013e6119be565b606091505b506000815103611a0557846040517f57f447ce0000000000000000000000000000000000000000000000000000000081526004016119fc9190612505565b60405180910390fd5b805160208201fd5b63f23a6e6160e01b7bffffffffffffffffffffffffffffffffffffffffffffffffffffffff1916817bffffffffffffffffffffffffffffffffffffffffffffffffffffffff191614611a9657846040517f57f447ce000000000000000000000000000000000000000000000000000000008152600401611a8d9190612505565b60405180910390fd5b505b505050505050565b60008473ffffffffffffffffffffffffffffffffffffffff163b1115611c4c578373ffffffffffffffffffffffffffffffffffffffff1663bc197c8187878686866040518663ffffffff1660e01b8152600401611b01959493929190612dc3565b6020604051808303816000875af1925050508015611b3d57506040513d601f19601f82011682018060405250810190611b3a9190612d96565b60015b611bc1573d8060008114611b6d576040519150601f19603f3d011682016040523d82523d6000602084013e611b72565b606091505b506000815103611bb957846040517f57f447ce000000000000000000000000000000000000000000000000000000008152600401611bb09190612505565b60405180910390fd5b805160208201fd5b63bc197c8160e01b7bffffffffffffffffffffffffffffffffffffffffffffffffffffffff1916817bffffffffffffffffffffffffffffffffffffffffffffffffffffffff191614611c4a57846040517f57f447ce000000000000000000000000000000000000000000000000000000008152600401611c419190612505565b60405180910390fd5b505b505050505050565b6000604051905090565b600080fd5b600080fd5b600073ffffffffffffffffffffffffffffffffffffffff82169050919050565b6000611c9382611c68565b9050919050565b611ca381611c88565b8114611cae57600080fd5b50565b600081359050611cc081611c9a565b92915050565b6000819050919050565b611cd981611cc6565b8114611ce457600080fd5b50565b600081359050611cf681611cd0565b92915050565b60008060408385031215611d1357611d12611c5e565b5b6000611d2185828601611cb1565b9250506020611d3285828601611ce7565b9150509250929050565b611d4581611cc6565b82525050565b6000602082019050611d606000830184611d3c565b92915050565b60007fffffffff0000000000000000000000000000000000000000000000000000000082169050919050565b611d9b81611d66565b8114611da657600080fd5b50565b600081359050611db881611d92565b92915050565b600060208284031215611dd457611dd3611c5e565b5b6000611de284828501611da9565b91505092915050565b60008115159050919050565b611e0081611deb565b82525050565b6000602082019050611e1b6000830184611df7565b92915050565b600060208284031215611e3757611e36611c5e565b5b6000611e4584828501611ce7565b91505092915050565b600081519050919050565b600082825260208201905092915050565b60005b83811015611e88578082015181840152602081019050611e6d565b60008484015250505050565b6000601f19601f8301169050919050565b6000611eb082611e4e565b611eba8185611e59565b9350611eca818560208601611e6a565b611ed381611e94565b840191505092915050565b60006020820190508181036000830152611ef88184611ea5565b905092915050565b600080fd5b600080fd5b600080fd5b60008083601f840112611f2557611f24611f00565b5b8235905067ffffffffffffffff811115611f4257611f41611f05565b5b602083019150836001820283011115611f5e57611f5d611f0a565b5b9250929050565b60008060008060608587031215611f7f57611f7e611c5e565b5b600085013567ffffffffffffffff811115611f9d57611f9c611c63565b5b611fa987828801611f0f565b94509450506020611fbc87828801611ce7565b9250506040611fcd87828801611ce7565b91505092959194509250565b60008060408385031215611ff057611fef611c5e565b5b6000611ffe85828601611ce7565b925050602061200f85828601611ce7565b9150509250929050565b7f4e487b7100000000000000000000000000000000000000000000000000000000600052604160045260246000fd5b61205182611e94565b810181811067ffffffffffffffff821117156120705761206f612019565b5b80604052505050565b6000612083611c54565b905061208f8282612048565b919050565b600067ffffffffffffffff8211156120af576120ae612019565b5b602082029050602081019050919050565b60006120d36120ce84612094565b612079565b905080838252602082019050602084028301858111156120f6576120f5611f0a565b5b835b8181101561211f578061210b8882611ce7565b8452602084019350506020810190506120f8565b5050509392505050565b600082601f83011261213e5761213d611f00565b5b813561214e8482602086016120c0565b91505092915050565b600080fd5b600067ffffffffffffffff82111561217757612176612019565b5b61218082611e94565b9050602081019050919050565b82818337600083830152505050565b60006121af6121aa8461215c565b612079565b9050828152602081018484840111156121cb576121ca612157565b5b6121d684828561218d565b509392505050565b600082601f8301126121f3576121f2611f00565b5b813561220384826020860161219c565b91505092915050565b600080600080600060a0868803121561222857612227611c5e565b5b600061223688828901611cb1565b955050602061224788828901611cb1565b945050604086013567ffffffffffffffff81111561226857612267611c63565b5b61227488828901612129565b935050606086013567ffffffffffffffff81111561229557612294611c63565b5b6122a188828901612129565b925050608086013567ffffffffffffffff8111156122c2576122c1611c63565b5b6122ce888289016121de565b9150509295509295909350565b600067ffffffffffffffff8211156122f6576122f5612019565b5b602082029050602081019050919050565b600061231a612315846122db565b612079565b9050808382526020820190506020840283018581111561233d5761233c611f0a565b5b835b8181101561236657806123528882611cb1565b84526020840193505060208101905061233f565b5050509392505050565b600082601f83011261238557612384611f00565b5b8135612395848260208601612307565b91505092915050565b600080604083850312156123b5576123b4611c5e565b5b600083013567ffffffffffffffff8111156123d3576123d2611c63565b5b6123df85828601612370565b925050602083013567ffffffffffffffff811115612400576123ff611c63565b5b61240c85828601612129565b9150509250929050565b600081519050919050565b600082825260208201905092915050565b6000819050602082019050919050565b61244b81611cc6565b82525050565b600061245d8383612442565b60208301905092915050565b6000602082019050919050565b600061248182612416565b61248b8185612421565b935061249683612432565b8060005b838110156124c75781516124ae8882612451565b97506124b983612469565b92505060018101905061249a565b5085935050505092915050565b600060208201905081810360008301526124ee8184612476565b905092915050565b6124ff81611c88565b82525050565b600060208201905061251a60008301846124f6565b92915050565b61252981611deb565b811461253457600080fd5b50565b60008135905061254681612520565b92915050565b6000806040838503121561256357612562611c5e565b5b600061257185828601611cb1565b925050602061258285828601612537565b9150509250929050565b600080604083850312156125a3576125a2611c5e565b5b60006125b185828601611cb1565b92505060206125c285828601611cb1565b9150509250929050565b600080600080600060a086880312156125e8576125e7611c5e565b5b60006125f688828901611cb1565b955050602061260788828901611cb1565b945050604061261888828901611ce7565b935050606061262988828901611ce7565b925050608086013567ffffffffffffffff81111561264a57612649611c63565b5b612656888289016121de565b9150509295509295909350565b60006020828403121561267957612678611c5e565b5b600061268784828501611cb1565b91505092915050565b7f4e487b7100000000000000000000000000000000000000000000000000000000600052602260045260246000fd5b600060028204905060018216806126d757607f821691505b6020821081036126ea576126e9612690565b5b50919050565b600081905092915050565b60008190508160005260206000209050919050565b6000815461271d816126bf565b61272781866126f0565b9450600182166000811461274257600181146127575761278a565b60ff198316865281151582028601935061278a565b612760856126fb565b60005b8381101561278257815481890152600182019150602081019050612763565b838801955050505b50505092915050565b600061279e82611e4e565b6127a881856126f0565b93506127b8818560208601611e6a565b80840191505092915050565b60006127d08285612710565b91506127dc8284612793565b91508190509392505050565b7f4e487b7100000000000000000000000000000000000000000000000000000000600052601160045260246000fd5b600061282282611cc6565b91507fffffffffffffffffffffffffffffffffffffffffffffffffffffffffffffffff8203612854576128536127e8565b5b600182019050919050565b600061286b8385611e59565b935061287883858461218d565b61288183611e94565b840190509392505050565b600060608201905081810360008301526128a781868861285f565b90506128b66020830185611d3c565b6128c36040830184611d3c565b95945050505050565b7f2165786973747300000000000000000000000000000000000000000000000000600082015250565b6000612902600783611e59565b915061290d826128cc565b602082019050919050565b60006020820190508181036000830152612931816128f5565b9050919050565b600060408201905061294d60008301856124f6565b61295a60208301846124f6565b9392505050565b60006040820190506129766000830185611d3c565b6129836020830184611d3c565b9392505050565b7f4e487b7100000000000000000000000000000000000000000000000000000000600052603260045260246000fd5b60006020601f8301049050919050565b600082821b905092915050565b600060088302612a067fffffffffffffffffffffffffffffffffffffffffffffffffffffffffffffffff826129c9565b612a1086836129c9565b95508019841693508086168417925050509392505050565b6000819050919050565b6000612a4d612a48612a4384611cc6565b612a28565b611cc6565b9050919050565b6000819050919050565b612a6783612a32565b612a7b612a7382612a54565b8484546129d6565b825550505050565b600090565b612a90612a83565b612a9b818484612a5e565b505050565b5b81811015612abf57612ab4600082612a88565b600181019050612aa1565b5050565b601f821115612b0457612ad5816126fb565b612ade846129b9565b81016020851015612aed578190505b612b01612af9856129b9565b830182612aa0565b50505b505050565b600082821c905092915050565b6000612b2760001984600802612b09565b1980831691505092915050565b6000612b408383612b16565b9150826002028217905092915050565b612b5982611e4e565b67ffffffffffffffff811115612b7257612b71612019565b5b612b7c82546126bf565b612b87828285612ac3565b600060209050601f831160018114612bba5760008415612ba8578287015190505b612bb28582612b34565b865550612c1a565b601f198416612bc8866126fb565b60005b82811015612bf057848901518255600182019150602085019450602081019050612bcb565b86831015612c0d5784890151612c09601f891682612b16565b8355505b6001600288020188555050505b505050505050565b6000608082019050612c3760008301876124f6565b612c446020830186611d3c565b612c516040830185611d3c565b612c5e6060830184611d3c565b95945050505050565b6000612c7282611cc6565b9150612c7d83611cc6565b9250828201905080821115612c9557612c946127e8565b5b92915050565b60006040820190508181036000830152612cb58185612476565b90508181036020830152612cc98184612476565b90509392505050565b600081519050919050565b600082825260208201905092915050565b6000612cf982612cd2565b612d038185612cdd565b9350612d13818560208601611e6a565b612d1c81611e94565b840191505092915050565b600060a082019050612d3c60008301886124f6565b612d4960208301876124f6565b612d566040830186611d3c565b612d636060830185611d3c565b8181036080830152612d758184612cee565b90509695505050505050565b600081519050612d9081611d92565b92915050565b600060208284031215612dac57612dab611c5e565b5b6000612dba84828501612d81565b91505092915050565b600060a082019050612dd860008301886124f6565b612de560208301876124f6565b8181036040830152612df78186612476565b90508181036060830152612e0b8185612476565b90508181036080830152612e1f8184612cee565b9050969550505050505056fea264697066735822122062b308740976758866dcbd56d88aef4ce185c837a9ed0b9f9d28876f2743e56064736f6c634300081c0033",
  "linkReferences": {},
  "deployedLinkReferences": {}
}