{
  "_format": "hh-sol-artifact-1",
  "contractName": "ContentRegistry",
  "sourceName": "contracts/03_ContentRegistry.sol",
  "abi": [
    {
      "inputs": [
        {
          "internalType": "address",
          "name": "_cr",
          "type": "address"
        },
        {
          "internalType": "address",
          "name": "_sm",
          "type": "address"
        },
        {
          "internalType": "address",
          "name": "_nft",
          "type": "address"
        }
      ],
      "stateMutability": "nonpayable",
      "type": "constructor"
    },
    {
      "anonymous": false,
      "inputs": [
        {
          "indexed": true,
          "internalType": "uint256",
          "name": "id",
          "type": "uint256"
        },
        {
          "indexed": true,
          "internalType": "address",
          "name": "creator",
          "type": "address"
        },
        {
          "indexed": false,
          "internalType": "string",
          "name": "arTxId",
          "type": "string"
        },
        {
          "indexed": false,
          "internalType": "uint256",
          "name": "price",
          "type": "uint256"
        },
        {
          "indexed": false,
          "internalType": "enum ContentRegistry.Access",
          "name": "access",
          "type": "uint8"
        }
      ],
      "name": "Uploaded",
      "type": "event"
    },
    {
      "inputs": [],
      "name": "CREATOR_REG",
      "outputs": [
        {
          "internalType": "contract CreatorRegistry",
          "name": "",
          "type": "address"
        }
      ],
      "stateMutability": "view",
      "type": "function"
    },
    {
      "inputs": [],
      "name": "NFT_ACCESS",
      "outputs": [
        {
          "internalType": "contract NFTAccess",
          "name": "",
          "type": "address"
        }
      ],
      "stateMutability": "view",
      "type": "function"
    },
    {
      "inputs": [],
      "name": "SUB_MGR",
      "outputs": [
        {
          "internalType": "contract SubscriptionManager",
          "name": "",
          "type": "address"
        }
      ],
      "stateMutability": "view",
      "type": "function"
    },
    {
      "inputs": [
        {
          "internalType": "uint256",
          "name": "",
          "type": "uint256"
        }
      ],
      "name": "contents",
      "outputs": [
        {
          "internalType": "address",
          "name": "creator",
          "type": "address"
        },
        {
          "internalType": "string",
          "name": "arTxId",
          "type": "string"
        },
        {
          "internalType": "uint256",
          "name": "priceWei",
          "type": "uint256"
        },
        {
          "internalType": "enum ContentRegistry.Access",
          "name": "access",
          "type": "uint8"
        },
        {
          "internalType": "uint256",
          "name": "nftTierId",
          "type": "uint256"
        },
        {
          "internalType": "uint256",
          "name": "createdAt",
          "type": "uint256"
        }
      ],
      "stateMutability": "view",
      "type": "function"
    },
    {
      "inputs": [
        {
          "internalType": "uint256",
          "name": "_id",
          "type": "uint256"
        },
        {
          "internalType": "address",
          "name": "_user",
          "type": "address"
        }
      ],
      "name": "hasAccess",
      "outputs": [
        {
          "internalType": "bool",
          "name": "",
          "type": "bool"
        }
      ],
      "stateMutability": "view",
      "type": "function"
    },
    {
      "inputs": [],
      "name": "nextId",
      "outputs": [
        {
          "internalType": "uint256",
          "name": "",
          "type": "uint256"
        }
      ],
      "stateMutability": "view",
      "type": "function"
    },
    {
      "inputs": [
        {
          "internalType": "string",
          "name": "_arTxId",
          "type": "string"
        },
        {
          "internalType": "uint256",
          "name": "_priceWei",
          "type": "uint256"
        },
        {
          "internalType": "enum ContentRegistry.Access",
          "name": "_access",
          "type": "uint8"
        },
        {
          "internalType": "uint256",
          "name": "_tierId",
          "type": "uint256"
        }
      ],
      "name": "upload",
      "outputs": [
        {
          "internalType": "uint256",
          "name": "id",
          "type": "uint256"
        }
      ],
      "stateMutability": "nonpayable",
      "type": "function"
    }
  ],
  "bytecode": "0x60e0604052600160005534801561001557600080fd5b5060405161174a38038061174a8339818101604052810190610037919061013e565b8273ffffffffffffffffffffffffffffffffffffffff1660808173ffffffffffffffffffffffffffffffffffffffff16815250508173ffffffffffffffffffffffffffffffffffffffff1660a08173ffffffffffffffffffffffffffffffffffffffff16815250508073ffffffffffffffffffffffffffffffffffffffff1660c08173ffffffffffffffffffffffffffffffffffffffff1681525050505050610191565b600080fd5b600073ffffffffffffffffffffffffffffffffffffffff82169050919050565b600061010b826100e0565b9050919050565b61011b81610100565b811461012657600080fd5b50565b60008151905061013881610112565b92915050565b600080600060608486031215610157576101566100db565b5b600061016586828701610129565b935050602061017686828701610129565b925050604061018786828701610129565b9150509250925092565b60805160a05160c0516115756101d56000396000818161044f015261083501526000818161075c01526108e9015260008181610194015261047901526115756000f3fe608060405234801561001057600080fd5b506004361061007d5760003560e01c80636c4089db1161005b5780636c4089db146100ee578063b5ecf9121461010c578063ced1419814610141578063e7684473146101715761007d565b80631cafbb4a146100825780633c7e750c146100b257806361b8ce8c146100d0575b600080fd5b61009c600480360381019061009791906109df565b61018f565b6040516100a99190610a76565b60405180910390f35b6100ba61044d565b6040516100c79190610b10565b60405180910390f35b6100d8610471565b6040516100e59190610a76565b60405180910390f35b6100f6610477565b6040516101039190610b4c565b60405180910390f35b61012660048036038101906101219190610b67565b61049b565b60405161013896959493929190610cbc565b60405180910390f35b61015b60048036038101906101569190610d50565b61058c565b6040516101689190610dab565b60405180910390f35b6101796108e7565b6040516101869190610de7565b60405180910390f35b6000807f000000000000000000000000000000000000000000000000000000000000000073ffffffffffffffffffffffffffffffffffffffff1663933166e1336040518263ffffffff1660e01b81526004016101eb9190610e02565b600060405180830381865afa158015610208573d6000803e3d6000fd5b505050506040513d6000823e3d601f19601f820116820180604052508101906102319190610f7f565b50505050509050600081510361027c576040517f08c379a0000000000000000000000000000000000000000000000000000000008152600401610273906110ac565b60405180910390fd5b60008081548092919061028e906110fb565b9190505591506040518060c001604052803373ffffffffffffffffffffffffffffffffffffffff16815260200188888080601f016020809104026020016040519081016040528093929190818152602001838380828437600081840152601f19601f82011690508083019250505050505050815260200186815260200185600281111561031e5761031d610c45565b5b8152602001848152602001428152506001600084815260200190815260200160002060008201518160000160006101000a81548173ffffffffffffffffffffffffffffffffffffffff021916908373ffffffffffffffffffffffffffffffffffffffff160217905550602082015181600101908161039c9190611345565b506040820151816002015560608201518160030160006101000a81548160ff021916908360028111156103d2576103d1610c45565b5b02179055506080820151816004015560a082015181600501559050503373ffffffffffffffffffffffffffffffffffffffff16827f8f895e430e20a86f01c70f8f15800382cd3d46c1efdf41ab502e780adad3b1518989898960405161043b9493929190611453565b60405180910390a35095945050505050565b7f000000000000000000000000000000000000000000000000000000000000000081565b60005481565b7f000000000000000000000000000000000000000000000000000000000000000081565b60016020528060005260406000206000915090508060000160009054906101000a900473ffffffffffffffffffffffffffffffffffffffff16908060010180546104e490611172565b80601f016020809104026020016040519081016040528092919081815260200182805461051090611172565b801561055d5780601f106105325761010080835404028352916020019161055d565b820191906000526020600020905b81548152906001019060200180831161054057829003601f168201915b5050505050908060020154908060030160009054906101000a900460ff16908060040154908060050154905086565b600080600160008581526020019081526020016000206040518060c00160405290816000820160009054906101000a900473ffffffffffffffffffffffffffffffffffffffff1673ffffffffffffffffffffffffffffffffffffffff1673ffffffffffffffffffffffffffffffffffffffff16815260200160018201805461061390611172565b80601f016020809104026020016040519081016040528092919081815260200182805461063f90611172565b801561068c5780601f106106615761010080835404028352916020019161068c565b820191906000526020600020905b81548152906001019060200180831161066f57829003601f168201915b50505050508152602001600282015481526020016003820160009054906101000a900460ff1660028111156106c4576106c3610c45565b5b60028111156106d6576106d5610c45565b5b81526020016004820154815260200160058201548152505090506000600281111561070457610703610c45565b5b8160600151600281111561071b5761071a610c45565b5b0361072a5760019150506108e1565b6001600281111561073e5761073d610c45565b5b8160600151600281111561075557610754610c45565b5b03610802577f000000000000000000000000000000000000000000000000000000000000000073ffffffffffffffffffffffffffffffffffffffff1663f6416ef68260000151856040518363ffffffff1660e01b81526004016107b9929190611493565b602060405180830381865afa1580156107d6573d6000803e3d6000fd5b505050506040513d601f19601f820116820180604052508101906107fa91906114bc565b9150506108e1565b60028081111561081557610814610c45565b5b8160600151600281111561082c5761082b610c45565b5b036108db5760007f000000000000000000000000000000000000000000000000000000000000000073ffffffffffffffffffffffffffffffffffffffff1662fdd58e8584608001516040518363ffffffff1660e01b81526004016108919291906114e9565b602060405180830381865afa1580156108ae573d6000803e3d6000fd5b505050506040513d601f19601f820116820180604052508101906108d29190611512565b119150506108e1565b60009150505b92915050565b7f000000000000000000000000000000000000000000000000000000000000000081565b6000604051905090565b600080fd5b600080fd5b600080fd5b600080fd5b600080fd5b60008083601f8401126109445761094361091f565b5b8235905067ffffffffffffffff81111561096157610960610924565b5b60208301915083600182028301111561097d5761097c610929565b5b9250929050565b6000819050919050565b61099781610984565b81146109a257600080fd5b50565b6000813590506109b48161098e565b92915050565b600381106109c757600080fd5b50565b6000813590506109d9816109ba565b92915050565b6000806000806000608086880312156109fb576109fa610915565b5b600086013567ffffffffffffffff811115610a1957610a1861091a565b5b610a258882890161092e565b95509550506020610a38888289016109a5565b9350506040610a49888289016109ca565b9250506060610a5a888289016109a5565b9150509295509295909350565b610a7081610984565b82525050565b6000602082019050610a8b6000830184610a67565b92915050565b600073ffffffffffffffffffffffffffffffffffffffff82169050919050565b6000819050919050565b6000610ad6610ad1610acc84610a91565b610ab1565b610a91565b9050919050565b6000610ae882610abb565b9050919050565b6000610afa82610add565b9050919050565b610b0a81610aef565b82525050565b6000602082019050610b256000830184610b01565b92915050565b6000610b3682610add565b9050919050565b610b4681610b2b565b82525050565b6000602082019050610b616000830184610b3d565b92915050565b600060208284031215610b7d57610b7c610915565b5b6000610b8b848285016109a5565b91505092915050565b6000610b9f82610a91565b9050919050565b610baf81610b94565b82525050565b600081519050919050565b600082825260208201905092915050565b60005b83811015610bef578082015181840152602081019050610bd4565b60008484015250505050565b6000601f19601f8301169050919050565b6000610c1782610bb5565b610c218185610bc0565b9350610c31818560208601610bd1565b610c3a81610bfb565b840191505092915050565b7f4e487b7100000000000000000000000000000000000000000000000000000000600052602160045260246000fd5b60038110610c8557610c84610c45565b5b50565b6000819050610c9682610c74565b919050565b6000610ca682610c88565b9050919050565b610cb681610c9b565b82525050565b600060c082019050610cd16000830189610ba6565b8181036020830152610ce38188610c0c565b9050610cf26040830187610a67565b610cff6060830186610cad565b610d0c6080830185610a67565b610d1960a0830184610a67565b979650505050505050565b610d2d81610b94565b8114610d3857600080fd5b50565b600081359050610d4a81610d24565b92915050565b60008060408385031215610d6757610d66610915565b5b6000610d75858286016109a5565b9250506020610d8685828601610d3b565b9150509250929050565b60008115159050919050565b610da581610d90565b82525050565b6000602082019050610dc06000830184610d9c565b92915050565b6000610dd182610add565b9050919050565b610de181610dc6565b82525050565b6000602082019050610dfc6000830184610dd8565b92915050565b6000602082019050610e176000830184610ba6565b92915050565b600080fd5b7f4e487b7100000000000000000000000000000000000000000000000000000000600052604160045260246000fd5b610e5a82610bfb565b810181811067ffffffffffffffff82111715610e7957610e78610e22565b5b80604052505050565b6000610e8c61090b565b9050610e988282610e51565b919050565b600067ffffffffffffffff821115610eb857610eb7610e22565b5b610ec182610bfb565b9050602081019050919050565b6000610ee1610edc84610e9d565b610e82565b905082815260208101848484011115610efd57610efc610e1d565b5b610f08848285610bd1565b509392505050565b600082601f830112610f2557610f2461091f565b5b8151610f35848260208601610ece565b91505092915050565b610f4781610d90565b8114610f5257600080fd5b50565b600081519050610f6481610f3e565b92915050565b600081519050610f798161098e565b92915050565b60008060008060008060c08789031215610f9c57610f9b610915565b5b600087015167ffffffffffffffff811115610fba57610fb961091a565b5b610fc689828a01610f10565b965050602087015167ffffffffffffffff811115610fe757610fe661091a565b5b610ff389828a01610f10565b955050604087015167ffffffffffffffff8111156110145761101361091a565b5b61102089828a01610f10565b945050606061103189828a01610f55565b935050608061104289828a01610f55565b92505060a061105389828a01610f6a565b9150509295509295509295565b7f2163726561746f72000000000000000000000000000000000000000000000000600082015250565b6000611096600883610bc0565b91506110a182611060565b602082019050919050565b600060208201905081810360008301526110c581611089565b9050919050565b7f4e487b7100000000000000000000000000000000000000000000000000000000600052601160045260246000fd5b600061110682610984565b91507fffffffffffffffffffffffffffffffffffffffffffffffffffffffffffffffff8203611138576111376110cc565b5b600182019050919050565b7f4e487b7100000000000000000000000000000000000000000000000000000000600052602260045260246000fd5b6000600282049050600182168061118a57607f821691505b60208210810361119d5761119c611143565b5b50919050565b60008190508160005260206000209050919050565b60006020601f8301049050919050565b600082821b905092915050565b6000600883026112057fffffffffffffffffffffffffffffffffffffffffffffffffffffffffffffffff826111c8565b61120f86836111c8565b95508019841693508086168417925050509392505050565b600061124261123d61123884610984565b610ab1565b610984565b9050919050565b6000819050919050565b61125c83611227565b61127061126882611249565b8484546111d5565b825550505050565b600090565b611285611278565b611290818484611253565b505050565b5b818110156112b4576112a960008261127d565b600181019050611296565b5050565b601f8211156112f9576112ca816111a3565b6112d3846111b8565b810160208510156112e2578190505b6112f66112ee856111b8565b830182611295565b50505b505050565b600082821c905092915050565b600061131c600019846008026112fe565b1980831691505092915050565b6000611335838361130b565b9150826002028217905092915050565b61134e82610bb5565b67ffffffffffffffff81111561136757611366610e22565b5b6113718254611172565b61137c8282856112b8565b600060209050601f8311600181146113af576000841561139d578287015190505b6113a78582611329565b86555061140f565b601f1984166113bd866111a3565b60005b828110156113e5578489015182556001820191506020850194506020810190506113c0565b8683101561140257848901516113fe601f89168261130b565b8355505b6001600288020188555050505b505050505050565b82818337600083830152505050565b60006114328385610bc0565b935061143f838584611417565b61144883610bfb565b840190509392505050565b6000606082019050818103600083015261146e818688611426565b905061147d6020830185610a67565b61148a6040830184610cad565b95945050505050565b60006040820190506114a86000830185610ba6565b6114b56020830184610ba6565b9392505050565b6000602082840312156114d2576114d1610915565b5b60006114e084828501610f55565b91505092915050565b60006040820190506114fe6000830185610ba6565b61150b6020830184610a67565b9392505050565b60006020828403121561152857611527610915565b5b600061153684828501610f6a565b9150509291505056fea2646970667358221220d6e9870b53c42ac2dc9e1ed4a7baa80678b75fffd3958575768ac5cd60446aef64736f6c634300081c0033",
  "linkReferences": {},
  "deployedLinkReferences": {}
}