{
  "_format": "hh-sol-artifact-1",
  "contractName": "LibertyToken",
  "sourceName": "contracts/01_LibertyToken.sol",
  "abi": [
    {
      "inputs": [],
      "stateMutability": "nonpayable",
      "type": "constructor"
    },
    {
      "inputs": [
        {
          "internalType": "address",
          "name": "spender",
          "type": "address"
        },
        {
          "internalType": "uint256",
          "name": "allowance",
          "type": "uint256"
        },
        {
          "internalType": "uint256",
          "name": "needed",
          "type": "uint256"
        }
      ],
      "name": "ERC20InsufficientAllowance",
      "type": "error"
    },
    {
      "inputs": [
        {
          "internalType": "address",
          "name": "sender",
          "type": "address"
        },
        {
          "internalType": "uint256",
          "name": "balance",
          "type": "uint256"
        },
        {
          "internalType": "uint256",
          "name": "needed",
          "type": "uint256"
        }
      ],
      "name": "ERC20InsufficientBalance",
      "type": "error"
    },
    {
      "inputs": [
        {
          "internalType": "address",
          "name": "approver",
          "type": "address"
        }
      ],
      "name": "ERC20InvalidApprover",
      "type": "error"
    },
    {
      "inputs": [
        {
          "internalType": "address",
          "name": "receiver",
          "type": "address"
        }
      ],
      "name": "ERC20InvalidReceiver",
      "type": "error"
    },
    {
      "inputs": [
        {
          "internalType": "address",
          "name": "sender",
          "type": "address"
        }
      ],
      "name": "ERC20InvalidSender",
      "type": "error"
    },
    {
      "inputs": [
        {
          "internalType": "address",
          "name": "spender",
          "type": "address"
        }
      ],
      "name": "ERC20InvalidSpender",
      "type": "error"
    },
    {
      "inputs": [
        {
          "internalType": "address",
          "name": "owner",
          "type": "address"
        }
      ],
      "name": "OwnableInvalidOwner",
      "type": "error"
    },
    {
      "inputs": [
        {
          "internalType": "address",
          "name": "account",
          "type": "address"
        }
      ],
      "name": "OwnableUnauthorizedAccount",
      "type": "error"
    },
    {
      "anonymous": false,
      "inputs": [
        {
          "indexed": true,
          "internalType": "address",
          "name": "owner",
          "type": "address"
        },
        {
          "indexed": true,
          "internalType": "address",
          "name": "spender",
          "type": "address"
        },
        {
          "indexed": false,
          "internalType": "uint256",
          "name": "value",
          "type": "uint256"
        }
      ],
      "name": "Approval",
      "type": "event"
    },
    {
      "anonymous": false,
      "inputs": [
        {
          "indexed": true,
          "internalType": "address",
          "name": "previousOwner",
          "type": "address"
        },
        {
          "indexed": true,
          "internalType": "address",
          "name": "newOwner",
          "type": "address"
        }
      ],
      "name": "OwnershipTransferStarted",
      "type": "event"
    },
    {
      "anonymous": false,
      "inputs": [
        {
          "indexed": true,
          "internalType": "address",
          "name": "previousOwner",
          "type": "address"
        },
        {
          "indexed": true,
          "internalType": "address",
          "name": "newOwner",
          "type": "address"
        }
      ],
      "name": "OwnershipTransferred",
      "type": "event"
    },
    {
      "anonymous": false,
      "inputs": [
        {
          "indexed": true,
          "internalType": "address",
          "name": "from",
          "type": "address"
        },
        {
          "indexed": true,
          "internalType": "address",
          "name": "to",
          "type": "address"
        },
        {
          "indexed": false,
          "internalType": "uint256",
          "name": "value",
          "type": "uint256"
        }
      ],
      "name": "Transfer",
      "type": "event"
    },
    {
      "inputs": [],
      "name": "acceptOwnership",
      "outputs": [],
      "stateMutability": "nonpayable",
      "type": "function"
    },
    {
      "inputs": [
        {
          "internalType": "address",
          "name": "owner",
          "type": "address"
        },
        {
          "internalType": "address",
          "name": "spender",
          "type": "address"
        }
      ],
      "name": "allowance",
      "outputs": [
        {
          "internalType": "uint256",
          "name": "",
          "type": "uint256"
        }
      ],
      "stateMutability": "view",
      "type": "function"
    },
    {
      "inputs": [
        {
          "internalType": "address",
          "name": "spender",
          "type": "address"
        },
        {
          "internalType": "uint256",
          "name": "value",
          "type": "uint256"
        }
      ],
      "name": "approve",
      "outputs": [
        {
          "internalType": "bool",
          "name": "",
          "type": "bool"
        }
      ],
      "stateMutability": "nonpayable",
      "type": "function"
    },
    {
      "inputs": [
        {
          "internalType": "address",
          "name": "account",
          "type": "address"
        }
      ],
      "name": "balanceOf",
      "outputs": [
        {
          "internalType": "uint256",
          "name": "",
          "type": "uint256"
        }
      ],
      "stateMutability": "view",
      "type": "function"
    },
    {
      "inputs": [],
      "name": "decimals",
      "outputs": [
        {
          "internalType": "uint8",
          "name": "",
          "type": "uint8"
        }
      ],
      "stateMutability": "view",
      "type": "function"
    },
    {
      "inputs": [
        {
          "internalType": "address",
          "name": "to",
          "type": "address"
        },
        {
          "internalType": "uint256",
          "name": "amount",
          "type": "uint256"
        }
      ],
      "name": "mint",
      "outputs": [],
      "stateMutability": "nonpayable",
      "type": "function"
    },
    {
      "inputs": [],
      "name": "name",
      "outputs": [
        {
          "internalType": "string",
          "name": "",
          "type": "string"
        }
      ],
      "stateMutability": "view",
      "type": "function"
    },
    {
      "inputs": [],
      "name": "owner",
      "outputs": [
        {
          "internalType": "address",
          "name": "",
          "type": "address"
        }
      ],
      "stateMutability": "view",
      "type": "function"
    },
    {
      "inputs": [],
      "name": "pendingOwner",
      "outputs": [
        {
          "internalType": "address",
          "name": "",
          "type": "address"
        }
      ],
      "stateMutability": "view",
      "type": "function"
    },
    {
      "inputs": [],
      "name": "renounceOwnership",
      "outputs": [],
      "stateMutability": "nonpayable",
      "type": "function"
    },
    {
      "inputs": [],
      "name": "symbol",
      "outputs": [
        {
          "internalType": "string",
          "name": "",
          "type": "string"
        }
      ],
      "stateMutability": "view",
      "type": "function"
    },
    {
      "inputs": [],
      "name": "totalSupply",
      "outputs": [
        {
          "internalType": "uint256",
          "name": "",
          "type": "uint256"
        }
      ],
      "stateMutability": "view",
      "type": "function"
    },
    {
      "inputs": [
        {
          "internalType": "address",
          "name": "to",
          "type": "address"
        },
        {
          "internalType": "uint256",
          "name": "value",
          "type": "uint256"
        }
      ],
      "name": "transfer",
      "outputs": [
        {
          "internalType": "bool",
          "name": "",
          "type": "bool"
        }
      ],
      "stateMutability": "nonpayable",
      "type": "function"
    },
    {
      "inputs": [
        {
          "internalType": "address",
          "name": "from",
          "type": "address"
        },
        {
          "internalType": "address",
          "name": "to",
          "type": "address"
        },
        {
          "internalType": "uint256",
          "name": "value",
          "type": "uint256"
        }
      ],
      "name": "transferFrom",
      "outputs": [
        {
          "internalType": "bool",
          "name": "",
          "type": "bool"
        }
      ],
      "stateMutability": "nonpayable",
      "type": "function"
    },
    {
      "inputs": [
        {
          "internalType": "address",
          "name": "newOwner",
          "type": "address"
        }
      ],
      "name": "transferOwnership",
      "outputs": [],
      "stateMutability": "nonpayable",
      "type": "function"
    }
  ],
  "bytecode": "0x608060405234801561001057600080fd5b50336040518060400160405280600781526020017f4c696265727479000000000000000000000000000000000000000000000000008152506040518060400160405280600381526020017f4c49420000000000000000000000000000000000000000000000000000000000815250816003908161008d9190610761565b50806004908161009d9190610761565b505050600073ffffffffffffffffffffffffffffffffffffffff168173ffffffffffffffffffffffffffffffffffffffff16036101125760006040517f1e4fbdf70000000000000000000000000000000000000000000000000000000081526004016101099190610874565b60405180910390fd5b6101218161015e60201b60201c565b506101593361013461019560201b60201c565b600a61014091906109fe565b6298968061014e9190610a49565b61019e60201b60201c565b610b20565b600660006101000a81549073ffffffffffffffffffffffffffffffffffffffff02191690556101928161022660201b60201c565b50565b60006012905090565b600073ffffffffffffffffffffffffffffffffffffffff168273ffffffffffffffffffffffffffffffffffffffff16036102105760006040517fec442f050000000000000000000000000000000000000000000000000000000081526004016102079190610874565b60405180910390fd5b610222600083836102ec60201b60201c565b5050565b6000600560009054906101000a900473ffffffffffffffffffffffffffffffffffffffff16905081600560006101000a81548173ffffffffffffffffffffffffffffffffffffffff021916908373ffffffffffffffffffffffffffffffffffffffff1602179055508173ffffffffffffffffffffffffffffffffffffffff168173ffffffffffffffffffffffffffffffffffffffff167f8be0079c531659141344cd1fd0a4f28419497f9722a3daafe3b4186f6b6457e060405160405180910390a35050565b600073ffffffffffffffffffffffffffffffffffffffff168373ffffffffffffffffffffffffffffffffffffffff160361033e5780600260008282546103329190610a8b565b92505081905550610411565b60008060008573ffffffffffffffffffffffffffffffffffffffff1673ffffffffffffffffffffffffffffffffffffffff168152602001908152602001600020549050818110156103ca578381836040517fe450d38c0000000000000000000000000000000000000000000000000000000081526004016103c193929190610ace565b60405180910390fd5b8181036000808673ffffffffffffffffffffffffffffffffffffffff1673ffffffffffffffffffffffffffffffffffffffff16815260200190815260200160002081905550505b600073ffffffffffffffffffffffffffffffffffffffff168273ffffffffffffffffffffffffffffffffffffffff160361045a57806002600082825403925050819055506104a7565b806000808473ffffffffffffffffffffffffffffffffffffffff1673ffffffffffffffffffffffffffffffffffffffff168152602001908152602001600020600082825401925050819055505b8173ffffffffffffffffffffffffffffffffffffffff168373ffffffffffffffffffffffffffffffffffffffff167fddf252ad1be2c89b69c2b068fc378daa952ba7f163c4a11628f55a4df523b3ef836040516105049190610b05565b60405180910390a3505050565b600081519050919050565b7f4e487b7100000000000000000000000000000000000000000000000000000000600052604160045260246000fd5b7f4e487b7100000000000000000000000000000000000000000000000000000000600052602260045260246000fd5b6000600282049050600182168061059257607f821691505b6020821081036105a5576105a461054b565b5b50919050565b60008190508160005260206000209050919050565b60006020601f8301049050919050565b600082821b905092915050565b60006008830261060d7fffffffffffffffffffffffffffffffffffffffffffffffffffffffffffffffff826105d0565b61061786836105d0565b95508019841693508086168417925050509392505050565b6000819050919050565b6000819050919050565b600061065e6106596106548461062f565b610639565b61062f565b9050919050565b6000819050919050565b61067883610643565b61068c61068482610665565b8484546105dd565b825550505050565b600090565b6106a1610694565b6106ac81848461066f565b505050565b5b818110156106d0576106c5600082610699565b6001810190506106b2565b5050565b601f821115610715576106e6816105ab565b6106ef846105c0565b810160208510156106fe578190505b61071261070a856105c0565b8301826106b1565b50505b505050565b600082821c905092915050565b60006107386000198460080261071a565b1980831691505092915050565b60006107518383610727565b9150826002028217905092915050565b61076a82610511565b67ffffffffffffffff8111156107835761078261051c565b5b61078d825461057a565b6107988282856106d4565b600060209050601f8311600181146107cb57600084156107b9578287015190505b6107c38582610745565b86555061082b565b601f1984166107d9866105ab565b60005b82811015610801578489015182556001820191506020850194506020810190506107dc565b8683101561081e578489015161081a601f891682610727565b8355505b6001600288020188555050505b505050505050565b600073ffffffffffffffffffffffffffffffffffffffff82169050919050565b600061085e82610833565b9050919050565b61086e81610853565b82525050565b60006020820190506108896000830184610865565b92915050565b7f4e487b7100000000000000000000000000000000000000000000000000000000600052601160045260246000fd5b60008160011c9050919050565b6000808291508390505b6001851115610915578086048111156108f1576108f061088f565b5b60018516156109005780820291505b808102905061090e856108be565b94506108d5565b94509492505050565b60008261092e57600190506109ea565b8161093c57600090506109ea565b8160018114610952576002811461095c5761098b565b60019150506109ea565b60ff84111561096e5761096d61088f565b5b8360020a9150848211156109855761098461088f565b5b506109ea565b5060208310610133831016604e8410600b84101617156109c05782820a9050838111156109bb576109ba61088f565b5b6109ea565b6109cd84848460016108cb565b925090508184048111156109e4576109e361088f565b5b81810290505b9392505050565b600060ff82169050919050565b6000610a098261062f565b9150610a14836109f1565b9250610a417fffffffffffffffffffffffffffffffffffffffffffffffffffffffffffffffff848461091e565b905092915050565b6000610a548261062f565b9150610a5f8361062f565b9250828202610a6d8161062f565b91508282048414831517610a8457610a8361088f565b5b5092915050565b6000610a968261062f565b9150610aa18361062f565b9250828201905080821115610ab957610ab861088f565b5b92915050565b610ac88161062f565b82525050565b6000606082019050610ae36000830186610865565b610af06020830185610abf565b610afd6040830184610abf565b949350505050565b6000602082019050610b1a6000830184610abf565b92915050565b6112fa80610b2f6000396000f3fe608060405234801561001057600080fd5b50600436106100f55760003560e01c8063715018a611610097578063a9059cbb11610066578063a9059cbb14610250578063dd62ed3e14610280578063e30c3978146102b0578063f2fde38b146102ce576100f5565b8063715018a61461020057806379ba50971461020a5780638da5cb5b1461021457806395d89b4114610232576100f5565b806323b872dd116100d357806323b872dd14610166578063313ce5671461019657806340c10f19146101b457806370a08231146101d0576100f5565b806306fdde03146100fa578063095ea7b31461011857806318160ddd14610148575b600080fd5b6101026102ea565b60405161010f9190610f4e565b60405180910390f35b610132600480360381019061012d9190611009565b61037c565b60405161013f9190611064565b60405180910390f35b61015061039f565b60405161015d919061108e565b60405180910390f35b610180600480360381019061017b91906110a9565b6103a9565b60405161018d9190611064565b60405180910390f35b61019e6103d8565b6040516101ab9190611118565b60405180910390f35b6101ce60048036038101906101c99190611009565b6103e1565b005b6101ea60048036038101906101e59190611133565b6103f7565b6040516101f7919061108e565b60405180910390f35b61020861043f565b005b610212610453565b005b61021c6104e2565b604051610229919061116f565b60405180910390f35b61023a61050c565b6040516102479190610f4e565b60405180910390f35b61026a60048036038101906102659190611009565b61059e565b6040516102779190611064565b60405180910390f35b61029a6004803603810190610295919061118a565b6105c1565b6040516102a7919061108e565b60405180910390f35b6102b8610648565b6040516102c5919061116f565b60405180910390f35b6102e860048036038101906102e39190611133565b610672565b005b6060600380546102f9906111f9565b80601f0160208091040260200160405190810160405280929190818152602001828054610325906111f9565b80156103725780601f1061034757610100808354040283529160200191610372565b820191906000526020600020905b81548152906001019060200180831161035557829003601f168201915b5050505050905090565b60008061038761071f565b9050610394818585610727565b600191505092915050565b6000600254905090565b6000806103b461071f565b90506103c1858285610739565b6103cc8585856107ce565b60019150509392505050565b60006012905090565b6103e96108c2565b6103f38282610949565b5050565b60008060008373ffffffffffffffffffffffffffffffffffffffff1673ffffffffffffffffffffffffffffffffffffffff168152602001908152602001600020549050919050565b6104476108c2565b61045160006109cb565b565b600061045d61071f565b90508073ffffffffffffffffffffffffffffffffffffffff1661047e610648565b73ffffffffffffffffffffffffffffffffffffffff16146104d657806040517f118cdaa70000000000000000000000000000000000000000000000000000000081526004016104cd919061116f565b60405180910390fd5b6104df816109cb565b50565b6000600560009054906101000a900473ffffffffffffffffffffffffffffffffffffffff16905090565b60606004805461051b906111f9565b80601f0160208091040260200160405190810160405280929190818152602001828054610547906111f9565b80156105945780601f1061056957610100808354040283529160200191610594565b820191906000526020600020905b81548152906001019060200180831161057757829003601f168201915b5050505050905090565b6000806105a961071f565b90506105b68185856107ce565b600191505092915050565b6000600160008473ffffffffffffffffffffffffffffffffffffffff1673ffffffffffffffffffffffffffffffffffffffff16815260200190815260200160002060008373ffffffffffffffffffffffffffffffffffffffff1673ffffffffffffffffffffffffffffffffffffffff16815260200190815260200160002054905092915050565b6000600660009054906101000a900473ffffffffffffffffffffffffffffffffffffffff16905090565b61067a6108c2565b80600660006101000a81548173ffffffffffffffffffffffffffffffffffffffff021916908373ffffffffffffffffffffffffffffffffffffffff1602179055508073ffffffffffffffffffffffffffffffffffffffff166106da6104e2565b73ffffffffffffffffffffffffffffffffffffffff167f38d16b8cac22d99fc7c124b9cd0de2d3fa1faef420bfe791d8c362d765e2270060405160405180910390a350565b600033905090565b61073483838360016109fc565b505050565b600061074584846105c1565b90507fffffffffffffffffffffffffffffffffffffffffffffffffffffffffffffffff8110156107c857818110156107b8578281836040517ffb8f41b20000000000000000000000000000000000000000000000000000000081526004016107af9392919061122a565b60405180910390fd5b6107c7848484840360006109fc565b5b50505050565b600073ffffffffffffffffffffffffffffffffffffffff168373ffffffffffffffffffffffffffffffffffffffff16036108405760006040517f96c6fd1e000000000000000000000000000000000000000000000000000000008152600401610837919061116f565b60405180910390fd5b600073ffffffffffffffffffffffffffffffffffffffff168273ffffffffffffffffffffffffffffffffffffffff16036108b25760006040517fec442f050000000000000000000000000000000000000000000000000000000081526004016108a9919061116f565b60405180910390fd5b6108bd838383610bd3565b505050565b6108ca61071f565b73ffffffffffffffffffffffffffffffffffffffff166108e86104e2565b73ffffffffffffffffffffffffffffffffffffffff16146109475761090b61071f565b6040517f118cdaa700000000000000000000000000000000000000000000000000000000815260040161093e919061116f565b60405180910390fd5b565b600073ffffffffffffffffffffffffffffffffffffffff168273ffffffffffffffffffffffffffffffffffffffff16036109bb5760006040517fec442f050000000000000000000000000000000000000000000000000000000081526004016109b2919061116f565b60405180910390fd5b6109c760008383610bd3565b5050565b600660006101000a81549073ffffffffffffffffffffffffffffffffffffffff02191690556109f981610df8565b50565b600073ffffffffffffffffffffffffffffffffffffffff168473ffffffffffffffffffffffffffffffffffffffff1603610a6e5760006040517fe602df05000000000000000000000000000000000000000000000000000000008152600401610a65919061116f565b60405180910390fd5b600073ffffffffffffffffffffffffffffffffffffffff168373ffffffffffffffffffffffffffffffffffffffff1603610ae05760006040517f94280d62000000000000000000000000000000000000000000000000000000008152600401610ad7919061116f565b60405180910390fd5b81600160008673ffffffffffffffffffffffffffffffffffffffff1673ffffffffffffffffffffffffffffffffffffffff16815260200190815260200160002060008573ffffffffffffffffffffffffffffffffffffffff1673ffffffffffffffffffffffffffffffffffffffff168152602001908152602001600020819055508015610bcd578273ffffffffffffffffffffffffffffffffffffffff168473ffffffffffffffffffffffffffffffffffffffff167f8c5be1e5ebec7d5bd14f71427d1e84f3dd0314c0f7b2291e5b200ac8c7c3b92584604051610bc4919061108e565b60405180910390a35b50505050565b600073ffffffffffffffffffffffffffffffffffffffff168373ffffffffffffffffffffffffffffffffffffffff1603610c25578060026000828254610c199190611290565b92505081905550610cf8565b60008060008573ffffffffffffffffffffffffffffffffffffffff1673ffffffffffffffffffffffffffffffffffffffff16815260200190815260200160002054905081811015610cb1578381836040517fe450d38c000000000000000000000000000000000000000000000000000000008152600401610ca89392919061122a565b60405180910390fd5b8181036000808673ffffffffffffffffffffffffffffffffffffffff1673ffffffffffffffffffffffffffffffffffffffff16815260200190815260200160002081905550505b600073ffffffffffffffffffffffffffffffffffffffff168273ffffffffffffffffffffffffffffffffffffffff1603610d415780600260008282540392505081905550610d8e565b806000808473ffffffffffffffffffffffffffffffffffffffff1673ffffffffffffffffffffffffffffffffffffffff168152602001908152602001600020600082825401925050819055505b8173ffffffffffffffffffffffffffffffffffffffff168373ffffffffffffffffffffffffffffffffffffffff167fddf252ad1be2c89b69c2b068fc378daa952ba7f163c4a11628f55a4df523b3ef83604051610deb919061108e565b60405180910390a3505050565b6000600560009054906101000a900473ffffffffffffffffffffffffffffffffffffffff16905081600560006101000a81548173ffffffffffffffffffffffffffffffffffffffff021916908373ffffffffffffffffffffffffffffffffffffffff1602179055508173ffffffffffffffffffffffffffffffffffffffff168173ffffffffffffffffffffffffffffffffffffffff167f8be0079c531659141344cd1fd0a4f28419497f9722a3daafe3b4186f6b6457e060405160405180910390a35050565b600081519050919050565b600082825260208201905092915050565b60005b83811015610ef8578082015181840152602081019050610edd565b60008484015250505050565b6000601f19601f8301169050919050565b6000610f2082610ebe565b610f2a8185610ec9565b9350610f3a818560208601610eda565b610f4381610f04565b840191505092915050565b60006020820190508181036000830152610f688184610f15565b905092915050565b600080fd5b600073ffffffffffffffffffffffffffffffffffffffff82169050919050565b6000610fa082610f75565b9050919050565b610fb081610f95565b8114610fbb57600080fd5b50565b600081359050610fcd81610fa7565b92915050565b6000819050919050565b610fe681610fd3565b8114610ff157600080fd5b50565b60008135905061100381610fdd565b92915050565b600080604083850312156110205761101f610f70565b5b600061102e85828601610fbe565b925050602061103f85828601610ff4565b9150509250929050565b60008115159050919050565b61105e81611049565b82525050565b60006020820190506110796000830184611055565b92915050565b61108881610fd3565b82525050565b60006020820190506110a3600083018461107f565b92915050565b6000806000606084860312156110c2576110c1610f70565b5b60006110d086828701610fbe565b93505060206110e186828701610fbe565b92505060406110f286828701610ff4565b9150509250925092565b600060ff82169050919050565b611112816110fc565b82525050565b600060208201905061112d6000830184611109565b92915050565b60006020828403121561114957611148610f70565b5b600061115784828501610fbe565b91505092915050565b61116981610f95565b82525050565b60006020820190506111846000830184611160565b92915050565b600080604083850312156111a1576111a0610f70565b5b60006111af85828601610fbe565b92505060206111c085828601610fbe565b9150509250929050565b7f4e487b7100000000000000000000000000000000000000000000000000000000600052602260045260246000fd5b6000600282049050600182168061121157607f821691505b602082108103611224576112236111ca565b5b50919050565b600060608201905061123f6000830186611160565b61124c602083018561107f565b611259604083018461107f565b949350505050565b7f4e487b7100000000000000000000000000000000000000000000000000000000600052601160045260246000fd5b600061129b82610fd3565b91506112a683610fd3565b92508282019050808211156112be576112bd611261565b5b9291505056fea264697066735822122051ece2423d8be0741e1e852bcc963e63fb00108fb9908fc2083770c1c825a92864736f6c634300081c0033",
  "linkReferences": {},
  "deployedLinkReferences": {}
}