{
  "_format": "hh-sol-artifact-1",
  "contractName": "SubscriptionManager",
  "sourceName": "contracts/05_SubscriptionManager.sol",
  "abi": [
    {
      "inputs": [],
      "name": "ReentrancyGuardReentrantCall",
      "type": "error"
    },
    {
      "anonymous": false,
      "inputs": [
        {
          "indexed": true,
          "internalType": "address",
          "name": "creator",
          "type": "address"
        },
        {
          "indexed": false,
          "internalType": "uint256",
          "name": "priceWei",
          "type": "uint256"
        },
        {
          "indexed": false,
          "internalType": "uint256",
          "name": "duration",
          "type": "uint256"
        }
      ],
      "name": "PlanSet",
      "type": "event"
    },
    {
      "anonymous": false,
      "inputs": [
        {
          "indexed": true,
          "internalType": "address",
          "name": "creator",
          "type": "address"
        },
        {
          "indexed": true,
          "internalType": "address",
          "name": "fan",
          "type": "address"
        },
        {
          "indexed": false,
          "internalType": "uint256",
          "name": "expiresAt",
          "type": "uint256"
        }
      ],
      "name": "Subscribed",
      "type": "event"
    },
    {
      "inputs": [
        {
          "internalType": "address",
          "name": "_creator",
          "type": "address"
        },
        {
          "internalType": "address",
          "name": "_fan",
          "type": "address"
        }
      ],
      "name": "isSubscribed",
      "outputs": [
        {
          "internalType": "bool",
          "name": "",
          "type": "bool"
        }
      ],
      "stateMutability": "view",
      "type": "function"
    },
    {
      "inputs": [
        {
          "internalType": "address",
          "name": "",
          "type": "address"
        }
      ],
      "name": "plans",
      "outputs": [
        {
          "internalType": "uint256",
          "name": "priceWei",
          "type": "uint256"
        },
        {
          "internalType": "uint256",
          "name": "duration",
          "type": "uint256"
        }
      ],
      "stateMutability": "view",
      "type": "function"
    },
    {
      "inputs": [
        {
          "internalType": "uint256",
          "name": "_priceWei",
          "type": "uint256"
        },
        {
          "internalType": "uint256",
          "name": "_duration",
          "type": "uint256"
        }
      ],
      "name": "setPlan",
      "outputs": [],
      "stateMutability": "nonpayable",
      "type": "function"
    },
    {
      "inputs": [
        {
          "internalType": "address",
          "name": "",
          "type": "address"
        },
        {
          "internalType": "address",
          "name": "",
          "type": "address"
        }
      ],
      "name": "subs",
      "outputs": [
        {
          "internalType": "uint256",
          "name": "expiresAt",
          "type": "uint256"
        }
      ],
      "stateMutability": "view",
      "type": "function"
    },
    {
      "inputs": [
        {
          "internalType": "address",
          "name": "_creator",
          "type": "address"
        }
      ],
      "name": "subscribe",
      "outputs": [],
      "stateMutability": "payable",
      "type": "function"
    }
  ],
  "bytecode": "0x6080604052348015600f57600080fd5b5060016000819055506109db806100276000396000f3fe60806040526004361061004a5760003560e01c80633353561d1461004f57806341a7726a1461007857806386d86d8414610094578063cd755b41146100d2578063f6416ef61461010f575b600080fd5b34801561005b57600080fd5b50610076600480360381019061007191906106c5565b61014c565b005b610092600480360381019061008d9190610763565b61020b565b005b3480156100a057600080fd5b506100bb60048036038101906100b69190610763565b61055f565b6040516100c992919061079f565b60405180910390f35b3480156100de57600080fd5b506100f960048036038101906100f491906107c8565b610583565b6040516101069190610808565b60405180910390f35b34801561011b57600080fd5b50610136600480360381019061013191906107c8565b6105ae565b604051610143919061083e565b60405180910390f35b604051806040016040528083815260200182815250600160003373ffffffffffffffffffffffffffffffffffffffff1673ffffffffffffffffffffffffffffffffffffffff16815260200190815260200160002060008201518160000155602082015181600101559050503373ffffffffffffffffffffffffffffffffffffffff167f1323190c0f71aa2ea9072ac953d27204897335c756d98328f202ad4c459b628983836040516101ff92919061079f565b60405180910390a25050565b61021361063a565b6000600160008373ffffffffffffffffffffffffffffffffffffffff1673ffffffffffffffffffffffffffffffffffffffff16815260200190815260200160002060405180604001604052908160008201548152602001600182015481525050905060008160000151116102bc576040517f08c379a00000000000000000000000000000000000000000000000000000000081526004016102b3906108b6565b60405180910390fd5b80600001513414610302576040517f08c379a00000000000000000000000000000000000000000000000000000000081526004016102f990610922565b60405180910390fd5b6000816020015142600260008673ffffffffffffffffffffffffffffffffffffffff1673ffffffffffffffffffffffffffffffffffffffff16815260200190815260200160002060003373ffffffffffffffffffffffffffffffffffffffff1673ffffffffffffffffffffffffffffffffffffffff16815260200190815260200160002060000154116103955742610416565b600260008573ffffffffffffffffffffffffffffffffffffffff1673ffffffffffffffffffffffffffffffffffffffff16815260200190815260200160002060003373ffffffffffffffffffffffffffffffffffffffff1673ffffffffffffffffffffffffffffffffffffffff168152602001908152602001600020600001545b6104209190610971565b905080600260008573ffffffffffffffffffffffffffffffffffffffff1673ffffffffffffffffffffffffffffffffffffffff16815260200190815260200160002060003373ffffffffffffffffffffffffffffffffffffffff1673ffffffffffffffffffffffffffffffffffffffff168152602001908152602001600020600001819055508273ffffffffffffffffffffffffffffffffffffffff166108fc349081150290604051600060405180830381858888f193505050501580156104ec573d6000803e3d6000fd5b503373ffffffffffffffffffffffffffffffffffffffff168373ffffffffffffffffffffffffffffffffffffffff167f1299b0ad0a8e7c2403716ae6507195ba96bd8cac7f49d8c129e18f9ae51374f08360405161054a9190610808565b60405180910390a3505061055c610680565b50565b60016020528060005260406000206000915090508060000154908060010154905082565b6002602052816000526040600020602052806000526040600020600091509150508060000154905081565b600042600260008573ffffffffffffffffffffffffffffffffffffffff1673ffffffffffffffffffffffffffffffffffffffff16815260200190815260200160002060008473ffffffffffffffffffffffffffffffffffffffff1673ffffffffffffffffffffffffffffffffffffffff1681526020019081526020016000206000015411905092915050565b600260005403610676576040517f3ee5aeb500000000000000000000000000000000000000000000000000000000815260040160405180910390fd5b6002600081905550565b6001600081905550565b600080fd5b6000819050919050565b6106a28161068f565b81146106ad57600080fd5b50565b6000813590506106bf81610699565b92915050565b600080604083850312156106dc576106db61068a565b5b60006106ea858286016106b0565b92505060206106fb858286016106b0565b9150509250929050565b600073ffffffffffffffffffffffffffffffffffffffff82169050919050565b600061073082610705565b9050919050565b61074081610725565b811461074b57600080fd5b50565b60008135905061075d81610737565b92915050565b6000602082840312156107795761077861068a565b5b60006107878482850161074e565b91505092915050565b6107998161068f565b82525050565b60006040820190506107b46000830185610790565b6107c16020830184610790565b9392505050565b600080604083850312156107df576107de61068a565b5b60006107ed8582860161074e565b92505060206107fe8582860161074e565b9150509250929050565b600060208201905061081d6000830184610790565b92915050565b60008115159050919050565b61083881610823565b82525050565b6000602082019050610853600083018461082f565b92915050565b600082825260208201905092915050565b7f6e6f20706c616e00000000000000000000000000000000000000000000000000600082015250565b60006108a0600783610859565b91506108ab8261086a565b602082019050919050565b600060208201905081810360008301526108cf81610893565b9050919050565b7f77726f6e6720616d6f756e740000000000000000000000000000000000000000600082015250565b600061090c600c83610859565b9150610917826108d6565b602082019050919050565b6000602082019050818103600083015261093b816108ff565b9050919050565b7f4e487b7100000000000000000000000000000000000000000000000000000000600052601160045260246000fd5b600061097c8261068f565b91506109878361068f565b925082820190508082111561099f5761099e610942565b5b9291505056fea2646970667358221220cd3de03a84f2071d4750eaf44f5d6dcbd54a145ba9e2c4378f9a64344e9a020864736f6c634300081c0033",
  "linkReferences": {},
  "deployedLinkReferences": {}
}