{
  "_format": "hh-sol-artifact-1",
  "contractName": "CreatorRegistry",
  "sourceName": "contracts/02_CreatorRegistry.sol",
  "abi": [
    {
      "inputs": [],
      "stateMutability": "nonpayable",
      "type": "constructor"
    },
    {
      "inputs": [
        {
          "internalType": "address",
          "name": "owner",
          "type": "address"
        }
      ],
      "name": "OwnableInvalidOwner",
      "type": "error"
    },
    {
      "inputs": [
        {
          "internalType": "address",
          "name": "account",
          "type": "address"
        }
      ],
      "name": "OwnableUnauthorizedAccount",
      "type": "error"
    },
    {
      "anonymous": false,
      "inputs": [
        {
          "indexed": true,
          "internalType": "address",
          "name": "creator",
          "type": "address"
        },
        {
          "indexed": false,
          "internalType": "uint256",
          "name": "amount",
          "type": "uint256"
        }
      ],
      "name": "EarningsIncreased",
      "type": "event"
    },
    {
      "anonymous": false,
      "inputs": [
        {
          "indexed": true,
          "internalType": "address",
          "name": "creator",
          "type": "address"
        },
        {
          "indexed": false,
          "internalType": "bool",
          "name": "verified",
          "type": "bool"
        }
      ],
      "name": "KycUpdated",
      "type": "event"
    },
    {
      "anonymous": false,
      "inputs": [
        {
          "indexed": true,
          "internalType": "address",
          "name": "previousOwner",
          "type": "address"
        },
        {
          "indexed": true,
          "internalType": "address",
          "name": "newOwner",
          "type": "address"
        }
      ],
      "name": "OwnershipTransferStarted",
      "type": "event"
    },
    {
      "anonymous": false,
      "inputs": [
        {
          "indexed": true,
          "internalType": "address",
          "name": "previousOwner",
          "type": "address"
        },
        {
          "indexed": true,
          "internalType": "address",
          "name": "newOwner",
          "type": "address"
        }
      ],
      "name": "OwnershipTransferred",
      "type": "event"
    },
    {
      "anonymous": false,
      "inputs": [
        {
          "indexed": true,
          "internalType": "address",
          "name": "creator",
          "type": "address"
        },
        {
          "indexed": false,
          "internalType": "string",
          "name": "handle",
          "type": "string"
        }
      ],
      "name": "Registered",
      "type": "event"
    },
    {
      "anonymous": false,
      "inputs": [
        {
          "indexed": true,
          "internalType": "address",
          "name": "creator",
          "type": "address"
        }
      ],
      "name": "Updated",
      "type": "event"
    },
    {
      "inputs": [],
      "name": "acceptOwnership",
      "outputs": [],
      "stateMutability": "nonpayable",
      "type": "function"
    },
    {
      "inputs": [
        {
          "internalType": "address",
          "name": "_creator",
          "type": "address"
        },
        {
          "internalType": "uint256",
          "name": "_amount",
          "type": "uint256"
        }
      ],
      "name": "addEarnings",
      "outputs": [],
      "stateMutability": "nonpayable",
      "type": "function"
    },
    {
      "inputs": [
        {
          "internalType": "address",
          "name": "",
          "type": "address"
        }
      ],
      "name": "creators",
      "outputs": [
        {
          "internalType": "string",
          "name": "handle",
          "type": "string"
        },
        {
          "internalType": "string",
          "name": "avatarURI",
          "type": "string"
        },
        {
          "internalType": "string",
          "name": "bio",
          "type": "string"
        },
        {
          "internalType": "bool",
          "name": "kycVerified",
          "type": "bool"
        },
        {
          "internalType": "bool",
          "name": "isBanned",
          "type": "bool"
        },
        {
          "internalType": "uint256",
          "name": "earned",
          "type": "uint256"
        }
      ],
      "stateMutability": "view",
      "type": "function"
    },
    {
      "inputs": [
        {
          "internalType": "string",
          "name": "",
          "type": "string"
        }
      ],
      "name": "handleToAddress",
      "outputs": [
        {
          "internalType": "address",
          "name": "",
          "type": "address"
        }
      ],
      "stateMutability": "view",
      "type": "function"
    },
    {
      "inputs": [],
      "name": "owner",
      "outputs": [
        {
          "internalType": "address",
          "name": "",
          "type": "address"
        }
      ],
      "stateMutability": "view",
      "type": "function"
    },
    {
      "inputs": [],
      "name": "pendingOwner",
      "outputs": [
        {
          "internalType": "address",
          "name": "",
          "type": "address"
        }
      ],
      "stateMutability": "view",
      "type": "function"
    },
    {
      "inputs": [
        {
          "internalType": "string",
          "name": "_handle",
          "type": "string"
        },
        {
          "internalType": "string",
          "name": "_avatar",
          "type": "string"
        },
        {
          "internalType": "string",
          "name": "_bio",
          "type": "string"
        }
      ],
      "name": "register",
      "outputs": [],
      "stateMutability": "nonpayable",
      "type": "function"
    },
    {
      "inputs": [],
      "name": "renounceOwnership",
      "outputs": [],
      "stateMutability": "nonpayable",
      "type": "function"
    },
    {
      "inputs": [
        {
          "internalType": "address",
          "name": "_creator",
          "type": "address"
        },
        {
          "internalType": "bool",
          "name": "_status",
          "type": "bool"
        }
      ],
      "name": "setKyc",
      "outputs": [],
      "stateMutability": "nonpayable",
      "type": "function"
    },
    {
      "inputs": [
        {
          "internalType": "address",
          "name": "newOwner",
          "type": "address"
        }
      ],
      "name": "transferOwnership",
      "outputs": [],
      "stateMutability": "nonpayable",
      "type": "function"
    },
    {
      "inputs": [
        {
          "internalType": "string",
          "name": "_avatar",
          "type": "string"
        },
        {
          "internalType": "string",
          "name": "_bio",
          "type": "string"
        }
      ],
      "name": "updateProfile",
      "outputs": [],
      "stateMutability": "nonpayable",
      "type": "function"
    }
  ],
  "bytecode": "0x608060405234801561001057600080fd5b5033600073ffffffffffffffffffffffffffffffffffffffff168173ffffffffffffffffffffffffffffffffffffffff16036100845760006040517f1e4fbdf700000000000000000000000000000000000000000000000000000000815260040161007b91906101d5565b60405180910390fd5b6100938161009960201b60201c565b506101f0565b600160006101000a81549073ffffffffffffffffffffffffffffffffffffffff02191690556100cd816100d060201b60201c565b50565b60008060009054906101000a900473ffffffffffffffffffffffffffffffffffffffff169050816000806101000a81548173ffffffffffffffffffffffffffffffffffffffff021916908373ffffffffffffffffffffffffffffffffffffffff1602179055508173ffffffffffffffffffffffffffffffffffffffff168173ffffffffffffffffffffffffffffffffffffffff167f8be0079c531659141344cd1fd0a4f28419497f9722a3daafe3b4186f6b6457e060405160405180910390a35050565b600073ffffffffffffffffffffffffffffffffffffffff82169050919050565b60006101bf82610194565b9050919050565b6101cf816101b4565b82525050565b60006020820190506101ea60008301846101c6565b92915050565b61198a806101ff6000396000f3fe608060405234801561001057600080fd5b50600436106100a95760003560e01c806379ba50971161007157806379ba50971461013c5780638da5cb5b14610146578063933166e114610164578063c9d3cc6a14610199578063e30c3978146101b5578063f2fde38b146101d3576100a9565b8063181876b0146100ae5780632d43f876146100de5780634cd08d03146100fa578063715018a6146101165780637807aeba14610120575b600080fd5b6100c860048036038101906100c39190610e90565b6101ef565b6040516100d59190610f1a565b60405180910390f35b6100f860048036038101906100f39190610f97565b610238565b005b610114600480360381019061010f9190611037565b6102eb565b005b61011e610665565b005b61013a60048036038101906101359190611123565b610679565b005b61014461072d565b005b61014e6107bc565b60405161015b9190610f1a565b60405180910390f35b61017e60048036038101906101799190611163565b6107e5565b6040516101909695949392919061122d565b60405180910390f35b6101b360048036038101906101ae91906112a3565b6109d3565b005b6101bd610adb565b6040516101ca9190610f1a565b60405180910390f35b6101ed60048036038101906101e89190611163565b610b05565b005b6003818051602081018201805184825260208301602085012081835280955050505050506000915054906101000a900473ffffffffffffffffffffffffffffffffffffffff1681565b610240610bb2565b80600260008473ffffffffffffffffffffffffffffffffffffffff1673ffffffffffffffffffffffffffffffffffffffff16815260200190815260200160002060040160008282546102929190611353565b925050819055508173ffffffffffffffffffffffffffffffffffffffff167f387047fd05b3880d1a18da854665a5a328aecba88f3647986529aba23c9f2200826040516102df9190611387565b60405180910390a25050565b60008686905011610331576040517f08c379a0000000000000000000000000000000000000000000000000000000008152600401610328906113ee565b60405180910390fd5b600073ffffffffffffffffffffffffffffffffffffffff166003878760405161035b92919061143e565b908152602001604051809103902060009054906101000a900473ffffffffffffffffffffffffffffffffffffffff1673ffffffffffffffffffffffffffffffffffffffff16146103e0576040517f08c379a00000000000000000000000000000000000000000000000000000000081526004016103d7906114a3565b60405180910390fd5b6040518060c0016040528087878080601f016020809104026020016040519081016040528093929190818152602001838380828437600081840152601f19601f82011690508083019250505050505050815260200185858080601f016020809104026020016040519081016040528093929190818152602001838380828437600081840152601f19601f82011690508083019250505050505050815260200183838080601f016020809104026020016040519081016040528093929190818152602001838380828437600081840152601f19601f8201169050808301925050505050505081526020016000151581526020016000151581526020016000815250600260003373ffffffffffffffffffffffffffffffffffffffff1673ffffffffffffffffffffffffffffffffffffffff168152602001908152602001600020600082015181600001908161053491906116cf565b50602082015181600101908161054a91906116cf565b50604082015181600201908161056091906116cf565b5060608201518160030160006101000a81548160ff02191690831515021790555060808201518160030160016101000a81548160ff02191690831515021790555060a0820151816004015590505033600387876040516105c192919061143e565b908152602001604051809103902060006101000a81548173ffffffffffffffffffffffffffffffffffffffff021916908373ffffffffffffffffffffffffffffffffffffffff1602179055503373ffffffffffffffffffffffffffffffffffffffff167fb3eccf73f39b1c07947c780b2b39df2a1bb058b4037b0a42d0881ca1a028a13287876040516106559291906117ce565b60405180910390a2505050505050565b61066d610bb2565b6106776000610c39565b565b610681610bb2565b80600260008473ffffffffffffffffffffffffffffffffffffffff1673ffffffffffffffffffffffffffffffffffffffff16815260200190815260200160002060030160006101000a81548160ff0219169083151502179055508173ffffffffffffffffffffffffffffffffffffffff167fc060d8add9e7b6a84ecb7f29b08e239fad2c56c4f609dec6c17ab68d8655fe7d8260405161072191906117f2565b60405180910390a25050565b6000610737610c6a565b90508073ffffffffffffffffffffffffffffffffffffffff16610758610adb565b73ffffffffffffffffffffffffffffffffffffffff16146107b057806040517f118cdaa70000000000000000000000000000000000000000000000000000000081526004016107a79190610f1a565b60405180910390fd5b6107b981610c39565b50565b60008060009054906101000a900473ffffffffffffffffffffffffffffffffffffffff16905090565b6002602052806000526040600020600091509050806000018054610808906114f2565b80601f0160208091040260200160405190810160405280929190818152602001828054610834906114f2565b80156108815780601f1061085657610100808354040283529160200191610881565b820191906000526020600020905b81548152906001019060200180831161086457829003601f168201915b505050505090806001018054610896906114f2565b80601f01602080910402602001604051908101604052809291908181526020018280546108c2906114f2565b801561090f5780601f106108e45761010080835404028352916020019161090f565b820191906000526020600020905b8154815290600101906020018083116108f257829003601f168201915b505050505090806002018054610924906114f2565b80601f0160208091040260200160405190810160405280929190818152602001828054610950906114f2565b801561099d5780601f106109725761010080835404028352916020019161099d565b820191906000526020600020905b81548152906001019060200180831161098057829003601f168201915b5050505050908060030160009054906101000a900460ff16908060030160019054906101000a900460ff16908060040154905086565b6000600260003373ffffffffffffffffffffffffffffffffffffffff1673ffffffffffffffffffffffffffffffffffffffff16815260200190815260200160002090506000816000018054610a27906114f2565b905003610a69576040517f08c379a0000000000000000000000000000000000000000000000000000000008152600401610a6090611859565b60405180910390fd5b8484826001019182610a7c929190611884565b508282826002019182610a90929190611884565b503373ffffffffffffffffffffffffffffffffffffffff167fe00da2178806f37f69815e9ed5ed3072ec1d55206d60916d99b469c7daa421e460405160405180910390a25050505050565b6000600160009054906101000a900473ffffffffffffffffffffffffffffffffffffffff16905090565b610b0d610bb2565b80600160006101000a81548173ffffffffffffffffffffffffffffffffffffffff021916908373ffffffffffffffffffffffffffffffffffffffff1602179055508073ffffffffffffffffffffffffffffffffffffffff16610b6d6107bc565b73ffffffffffffffffffffffffffffffffffffffff167f38d16b8cac22d99fc7c124b9cd0de2d3fa1faef420bfe791d8c362d765e2270060405160405180910390a350565b610bba610c6a565b73ffffffffffffffffffffffffffffffffffffffff16610bd86107bc565b73ffffffffffffffffffffffffffffffffffffffff1614610c3757610bfb610c6a565b6040517f118cdaa7000000000000000000000000000000000000000000000000000000008152600401610c2e9190610f1a565b60405180910390fd5b565b600160006101000a81549073ffffffffffffffffffffffffffffffffffffffff0219169055610c6781610c72565b50565b600033905090565b60008060009054906101000a900473ffffffffffffffffffffffffffffffffffffffff169050816000806101000a81548173ffffffffffffffffffffffffffffffffffffffff021916908373ffffffffffffffffffffffffffffffffffffffff1602179055508173ffffffffffffffffffffffffffffffffffffffff168173ffffffffffffffffffffffffffffffffffffffff167f8be0079c531659141344cd1fd0a4f28419497f9722a3daafe3b4186f6b6457e060405160405180910390a35050565b6000604051905090565b600080fd5b600080fd5b600080fd5b600080fd5b6000601f19601f8301169050919050565b7f4e487b7100000000000000000000000000000000000000000000000000000000600052604160045260246000fd5b610d9d82610d54565b810181811067ffffffffffffffff82111715610dbc57610dbb610d65565b5b80604052505050565b6000610dcf610d36565b9050610ddb8282610d94565b919050565b600067ffffffffffffffff821115610dfb57610dfa610d65565b5b610e0482610d54565b9050602081019050919050565b82818337600083830152505050565b6000610e33610e2e84610de0565b610dc5565b905082815260208101848484011115610e4f57610e4e610d4f565b5b610e5a848285610e11565b509392505050565b600082601f830112610e7757610e76610d4a565b5b8135610e87848260208601610e20565b91505092915050565b600060208284031215610ea657610ea5610d40565b5b600082013567ffffffffffffffff811115610ec457610ec3610d45565b5b610ed084828501610e62565b91505092915050565b600073ffffffffffffffffffffffffffffffffffffffff82169050919050565b6000610f0482610ed9565b9050919050565b610f1481610ef9565b82525050565b6000602082019050610f2f6000830184610f0b565b92915050565b610f3e81610ef9565b8114610f4957600080fd5b50565b600081359050610f5b81610f35565b92915050565b6000819050919050565b610f7481610f61565b8114610f7f57600080fd5b50565b600081359050610f9181610f6b565b92915050565b60008060408385031215610fae57610fad610d40565b5b6000610fbc85828601610f4c565b9250506020610fcd85828601610f82565b9150509250929050565b600080fd5b600080fd5b60008083601f840112610ff757610ff6610d4a565b5b8235905067ffffffffffffffff81111561101457611013610fd7565b5b6020830191508360018202830111156110305761102f610fdc565b5b9250929050565b6000806000806000806060878903121561105457611053610d40565b5b600087013567ffffffffffffffff81111561107257611071610d45565b5b61107e89828a01610fe1565b9650965050602087013567ffffffffffffffff8111156110a1576110a0610d45565b5b6110ad89828a01610fe1565b9450945050604087013567ffffffffffffffff8111156110d0576110cf610d45565b5b6110dc89828a01610fe1565b92509250509295509295509295565b60008115159050919050565b611100816110eb565b811461110b57600080fd5b50565b60008135905061111d816110f7565b92915050565b6000806040838503121561113a57611139610d40565b5b600061114885828601610f4c565b92505060206111598582860161110e565b9150509250929050565b60006020828403121561117957611178610d40565b5b600061118784828501610f4c565b91505092915050565b600081519050919050565b600082825260208201905092915050565b60005b838110156111ca5780820151818401526020810190506111af565b60008484015250505050565b60006111e182611190565b6111eb818561119b565b93506111fb8185602086016111ac565b61120481610d54565b840191505092915050565b611218816110eb565b82525050565b61122781610f61565b82525050565b600060c082019050818103600083015261124781896111d6565b9050818103602083015261125b81886111d6565b9050818103604083015261126f81876111d6565b905061127e606083018661120f565b61128b608083018561120f565b61129860a083018461121e565b979650505050505050565b600080600080604085870312156112bd576112bc610d40565b5b600085013567ffffffffffffffff8111156112db576112da610d45565b5b6112e787828801610fe1565b9450945050602085013567ffffffffffffffff81111561130a57611309610d45565b5b61131687828801610fe1565b925092505092959194509250565b7f4e487b7100000000000000000000000000000000000000000000000000000000600052601160045260246000fd5b600061135e82610f61565b915061136983610f61565b925082820190508082111561138157611380611324565b5b92915050565b600060208201905061139c600083018461121e565b92915050565b7f656d7074792068616e646c650000000000000000000000000000000000000000600082015250565b60006113d8600c8361119b565b91506113e3826113a2565b602082019050919050565b60006020820190508181036000830152611407816113cb565b9050919050565b600081905092915050565b6000611425838561140e565b9350611432838584610e11565b82840190509392505050565b600061144b828486611419565b91508190509392505050565b7f74616b656e000000000000000000000000000000000000000000000000000000600082015250565b600061148d60058361119b565b915061149882611457565b602082019050919050565b600060208201905081810360008301526114bc81611480565b9050919050565b7f4e487b7100000000000000000000000000000000000000000000000000000000600052602260045260246000fd5b6000600282049050600182168061150a57607f821691505b60208210810361151d5761151c6114c3565b5b50919050565b60008190508160005260206000209050919050565b60006020601f8301049050919050565b600082821b905092915050565b6000600883026115857fffffffffffffffffffffffffffffffffffffffffffffffffffffffffffffffff82611548565b61158f8683611548565b95508019841693508086168417925050509392505050565b6000819050919050565b60006115cc6115c76115c284610f61565b6115a7565b610f61565b9050919050565b6000819050919050565b6115e6836115b1565b6115fa6115f2826115d3565b848454611555565b825550505050565b600090565b61160f611602565b61161a8184846115dd565b505050565b5b8181101561163e57611633600082611607565b600181019050611620565b5050565b601f8211156116835761165481611523565b61165d84611538565b8101602085101561166c578190505b61168061167885611538565b83018261161f565b50505b505050565b600082821c905092915050565b60006116a660001984600802611688565b1980831691505092915050565b60006116bf8383611695565b9150826002028217905092915050565b6116d882611190565b67ffffffffffffffff8111156116f1576116f0610d65565b5b6116fb82546114f2565b611706828285611642565b600060209050601f8311600181146117395760008415611727578287015190505b61173185826116b3565b865550611799565b601f19841661174786611523565b60005b8281101561176f5784890151825560018201915060208501945060208101905061174a565b8683101561178c5784890151611788601f891682611695565b8355505b6001600288020188555050505b505050505050565b60006117ad838561119b565b93506117ba838584610e11565b6117c383610d54565b840190509392505050565b600060208201905081810360008301526117e98184866117a1565b90509392505050565b6000602082019050611807600083018461120f565b92915050565b7f2163726561746f72000000000000000000000000000000000000000000000000600082015250565b600061184360088361119b565b915061184e8261180d565b602082019050919050565b6000602082019050818103600083015261187281611836565b9050919050565b600082905092915050565b61188e8383611879565b67ffffffffffffffff8111156118a7576118a6610d65565b5b6118b182546114f2565b6118bc828285611642565b6000601f8311600181146118eb57600084156118d9578287013590505b6118e385826116b3565b86555061194b565b601f1984166118f986611523565b60005b82811015611921578489013582556001820191506020850194506020810190506118fc565b8683101561193e578489013561193a601f891682611695565b8355505b6001600288020188555050505b5050505050505056fea26469706673582212208e09c94bfe1abef23eb921a015296d5c5fa3a0517084058bd853ff664e8069cb64736f6c634300081c0033",
  "linkReferences": {},
  "deployedLinkReferences": {}
}