{
  "_format": "hh-sol-artifact-1",
  "contractName": "RevenueSplitter",
  "sourceName": "contracts/04_RevenueSplitter.sol",
  "abi": [
    {
      "inputs": [
        {
          "internalType": "address",
          "name": "_treasury",
          "type": "address"
        }
      ],
      "stateMutability": "nonpayable",
      "type": "constructor"
    },
    {
      "anonymous": false,
      "inputs": [
        {
          "indexed": true,
          "internalType": "address",
          "name": "payer",
          "type": "address"
        },
        {
          "indexed": true,
          "internalType": "address",
          "name": "creator",
          "type": "address"
        },
        {
          "indexed": false,
          "internalType": "uint256",
          "name": "total",
          "type": "uint256"
        },
        {
          "indexed": false,
          "internalType": "uint256",
          "name": "creatorShare",
          "type": "uint256"
        },
        {
          "indexed": false,
          "internalType": "uint256",
          "name": "fee",
          "type": "uint256"
        }
      ],
      "name": "Split",
      "type": "event"
    },
    {
      "inputs": [],
      "name": "DAO_TREASURY",
      "outputs": [
        {
          "internalType": "address",
          "name": "",
          "type": "address"
        }
      ],
      "stateMutability": "view",
      "type": "function"
    },
    {
      "inputs": [],
      "name": "PLATFORM_FEE",
      "outputs": [
        {
          "internalType": "uint256",
          "name": "",
          "type": "uint256"
        }
      ],
      "stateMutability": "view",
      "type": "function"
    },
    {
      "inputs": [
        {
          "internalType": "address",
          "name": "_creator",
          "type": "address"
        }
      ],
      "name": "split",
      "outputs": [],
      "stateMutability": "payable",
      "type": "function"
    },
    {
      "stateMutability": "payable",
      "type": "receive"
    }
  ],
  "bytecode": "0x60a060405234801561001057600080fd5b5060405161070e38038061070e833981810160405281019061003291906100cf565b8073ffffffffffffffffffffffffffffffffffffffff1660808173ffffffffffffffffffffffffffffffffffffffff1681525050506100fc565b600080fd5b600073ffffffffffffffffffffffffffffffffffffffff82169050919050565b600061009c82610071565b9050919050565b6100ac81610091565b81146100b757600080fd5b50565b6000815190506100c9816100a3565b92915050565b6000602082840312156100e5576100e461006c565b5b60006100f3848285016100ba565b91505092915050565b6080516105f061011e600039600081816101b0015261028501526105f06000f3fe6080604052600436106100385760003560e01c806334fbc9a11461007d57806356fa47f0146100a85780639dc78ee6146100c457610078565b36610078576040517f08c379a000000000000000000000000000000000000000000000000000000000815260040161006f90610304565b60405180910390fd5b600080fd5b34801561008957600080fd5b506100926100ef565b60405161009f919061033d565b60405180910390f35b6100c260048036038101906100bd91906103bb565b6100f5565b005b3480156100d057600080fd5b506100d9610283565b6040516100e691906103f7565b60405180910390f35b6103e881565b60003411610138576040517f08c379a000000000000000000000000000000000000000000000000000000000815260040161012f9061045e565b60405180910390fd5b60006127106103e83461014b91906104ad565b610155919061051e565b905060008134610165919061054f565b90508273ffffffffffffffffffffffffffffffffffffffff166108fc829081150290604051600060405180830381858888f193505050501580156101ad573d6000803e3d6000fd5b507f000000000000000000000000000000000000000000000000000000000000000073ffffffffffffffffffffffffffffffffffffffff166108fc839081150290604051600060405180830381858888f19350505050158015610214573d6000803e3d6000fd5b508273ffffffffffffffffffffffffffffffffffffffff163373ffffffffffffffffffffffffffffffffffffffff167f87b7303c13169ca533437d9348bad77edef423341cdc2df366d28034f25f89f934848660405161027693929190610583565b60405180910390a3505050565b7f000000000000000000000000000000000000000000000000000000000000000081565b600082825260208201905092915050565b7f7573652073706c69742829000000000000000000000000000000000000000000600082015250565b60006102ee600b836102a7565b91506102f9826102b8565b602082019050919050565b6000602082019050818103600083015261031d816102e1565b9050919050565b6000819050919050565b61033781610324565b82525050565b6000602082019050610352600083018461032e565b92915050565b600080fd5b600073ffffffffffffffffffffffffffffffffffffffff82169050919050565b60006103888261035d565b9050919050565b6103988161037d565b81146103a357600080fd5b50565b6000813590506103b58161038f565b92915050565b6000602082840312156103d1576103d0610358565b5b60006103df848285016103a6565b91505092915050565b6103f18161037d565b82525050565b600060208201905061040c60008301846103e8565b92915050565b7f7a65726f00000000000000000000000000000000000000000000000000000000600082015250565b60006104486004836102a7565b915061045382610412565b602082019050919050565b600060208201905081810360008301526104778161043b565b9050919050565b7f4e487b7100000000000000000000000000000000000000000000000000000000600052601160045260246000fd5b60006104b882610324565b91506104c383610324565b92508282026104d181610324565b915082820484148315176104e8576104e761047e565b5b5092915050565b7f4e487b7100000000000000000000000000000000000000000000000000000000600052601260045260246000fd5b600061052982610324565b915061053483610324565b925082610544576105436104ef565b5b828204905092915050565b600061055a82610324565b915061056583610324565b925082820390508181111561057d5761057c61047e565b5b92915050565b6000606082019050610598600083018661032e565b6105a5602083018561032e565b6105b2604083018461032e565b94935050505056fea26469706673582212206d5f53a66deaa1925cd48375bf544628457bde490cde191e72eade8b56541b3864736f6c634300081c0033",
  "linkReferences": {},
  "deployedLinkReferences": {}
}