{
  "_format": "hh-sol-artifact-1",
  "contractName": "LibertyDAO",
  "sourceName": "contracts/07_LibertyDAO.sol",
  "abi": [
    {
      "inputs": [
        {
          "internalType": "contract LibertyToken",
          "name": "_token",
          "type": "address"
        }
      ],
      "stateMutability": "nonpayable",
      "type": "constructor"
    },
    {
      "inputs": [
        {
          "internalType": "address",
          "name": "owner",
          "type": "address"
        }
      ],
      "name": "OwnableInvalidOwner",
      "type": "error"
    },
    {
      "inputs": [
        {
          "internalType": "address",
          "name": "account",
          "type": "address"
        }
      ],
      "name": "OwnableUnauthorizedAccount",
      "type": "error"
    },
    {
      "anonymous": false,
      "inputs": [
        {
          "indexed": true,
          "internalType": "address",
          "name": "from",
          "type": "address"
        },
        {
          "indexed": false,
          "internalType": "uint256",
          "name": "amount",
          "type": "uint256"
        }
      ],
      "name": "FundsReceived",
      "type": "event"
    },
    {
      "anonymous": false,
      "inputs": [
        {
          "indexed": true,
          "internalType": "address",
          "name": "previousOwner",
          "type": "address"
        },
        {
          "indexed": true,
          "internalType": "address",
          "name": "newOwner",
          "type": "address"
        }
      ],
      "name": "OwnershipTransferStarted",
      "type": "event"
    },
    {
      "anonymous": false,
      "inputs": [
        {
          "indexed": true,
          "internalType": "address",
          "name": "previousOwner",
          "type": "address"
        },
        {
          "indexed": true,
          "internalType": "address",
          "name": "newOwner",
          "type": "address"
        }
      ],
      "name": "OwnershipTransferred",
      "type": "event"
    },
    {
      "anonymous": false,
      "inputs": [
        {
          "indexed": true,
          "internalType": "uint256",
          "name": "proposalId",
          "type": "uint256"
        },
        {
          "indexed": false,
          "internalType": "string",
          "name": "description",
          "type": "string"
        }
      ],
      "name": "ProposalCreated",
      "type": "event"
    },
    {
      "anonymous": false,
      "inputs": [
        {
          "indexed": true,
          "internalType": "uint256",
          "name": "proposalId",
          "type": "uint256"
        }
      ],
      "name": "ProposalExecuted",
      "type": "event"
    },
    {
      "anonymous": false,
      "inputs": [
        {
          "indexed": true,
          "internalType": "uint256",
          "name": "proposalId",
          "type": "uint256"
        },
        {
          "indexed": true,
          "internalType": "address",
          "name": "voter",
          "type": "address"
        },
        {
          "indexed": false,
          "internalType": "bool",
          "name": "support",
          "type": "bool"
        },
        {
          "indexed": false,
          "internalType": "uint256",
          "name": "weight",
          "type": "uint256"
        }
      ],
      "name": "VoteCast",
      "type": "event"
    },
    {
      "inputs": [],
      "name": "QUORUM",
      "outputs": [
        {
          "internalType": "uint256",
          "name": "",
          "type": "uint256"
        }
      ],
      "stateMutability": "view",
      "type": "function"
    },
    {
      "inputs": [],
      "name": "VOTING_PERIOD",
      "outputs": [
        {
          "internalType": "uint256",
          "name": "",
          "type": "uint256"
        }
      ],
      "stateMutability": "view",
      "type": "function"
    },
    {
      "inputs": [],
      "name": "acceptOwnership",
      "outputs": [],
      "stateMutability": "nonpayable",
      "type": "function"
    },
    {
      "inputs": [
        {
          "internalType": "string",
          "name": "description",
          "type": "string"
        }
      ],
      "name": "createProposal",
      "outputs": [
        {
          "internalType": "uint256",
          "name": "",
          "type": "uint256"
        }
      ],
      "stateMutability": "nonpayable",
      "type": "function"
    },
    {
      "inputs": [
        {
          "internalType": "uint256",
          "name": "proposalId",
          "type": "uint256"
        }
      ],
      "name": "executeProposal",
      "outputs": [],
      "stateMutability": "nonpayable",
      "type": "function"
    },
    {
      "inputs": [],
      "name": "nextProposalId",
      "outputs": [
        {
          "internalType": "uint256",
          "name": "",
          "type": "uint256"
        }
      ],
      "stateMutability": "view",
      "type": "function"
    },
    {
      "inputs": [],
      "name": "owner",
      "outputs": [
        {
          "internalType": "address",
          "name": "",
          "type": "address"
        }
      ],
      "stateMutability": "view",
      "type": "function"
    },
    {
      "inputs": [],
      "name": "pendingOwner",
      "outputs": [
        {
          "internalType": "address",
          "name": "",
          "type": "address"
        }
      ],
      "stateMutability": "view",
      "type": "function"
    },
    {
      "inputs": [
        {
          "internalType": "uint256",
          "name": "",
          "type": "uint256"
        }
      ],
      "name": "proposals",
      "outputs": [
        {
          "internalType": "string",
          "name": "description",
          "type": "string"
        },
        {
          "internalType": "uint256",
          "name": "votesFor",
          "type": "uint256"
        },
        {
          "internalType": "uint256",
          "name": "votesAgainst",
          "type": "uint256"
        },
        {
          "internalType": "uint256",
          "name": "endTime",
          "type": "uint256"
        },
        {
          "internalType": "bool",
          "name": "executed",
          "type": "bool"
        }
      ],
      "stateMutability": "view",
      "type": "function"
    },
    {
      "inputs": [],
      "name": "renounceOwnership",
      "outputs": [],
      "stateMutability": "nonpayable",
      "type": "function"
    },
    {
      "inputs": [],
      "name": "token",
      "outputs": [
        {
          "internalType": "contract LibertyToken",
          "name": "",
          "type": "address"
        }
      ],
      "stateMutability": "view",
      "type": "function"
    },
    {
      "inputs": [
        {
          "internalType": "address",
          "name": "newOwner",
          "type": "address"
        }
      ],
      "name": "transferOwnership",
      "outputs": [],
      "stateMutability": "nonpayable",
      "type": "function"
    },
    {
      "inputs": [
        {
          "internalType": "uint256",
          "name": "proposalId",
          "type": "uint256"
        },
        {
          "internalType": "bool",
          "name": "support",
          "type": "bool"
        }
      ],
      "name": "vote",
      "outputs": [],
      "stateMutability": "nonpayable",
      "type": "function"
    },
    {
      "stateMutability": "payable",
      "type": "receive"
    }
  ],
  "bytecode": "0x60a0604052600160035534801561001557600080fd5b50604051611c41380380611c4183398181016040528101906100379190610264565b33600073ffffffffffffffffffffffffffffffffffffffff168173ffffffffffffffffffffffffffffffffffffffff16036100aa5760006040517f1e4fbdf70000000000000000000000000000000000000000000000000000000081526004016100a191906102a0565b60405180910390fd5b6100b9816100f460201b60201c565b508073ffffffffffffffffffffffffffffffffffffffff1660808173ffffffffffffffffffffffffffffffffffffffff1681525050506102bb565b600160006101000a81549073ffffffffffffffffffffffffffffffffffffffff02191690556101288161012b60201b60201c565b50565b60008060009054906101000a900473ffffffffffffffffffffffffffffffffffffffff169050816000806101000a81548173ffffffffffffffffffffffffffffffffffffffff021916908373ffffffffffffffffffffffffffffffffffffffff1602179055508173ffffffffffffffffffffffffffffffffffffffff168173ffffffffffffffffffffffffffffffffffffffff167f8be0079c531659141344cd1fd0a4f28419497f9722a3daafe3b4186f6b6457e060405160405180910390a35050565b600080fd5b600073ffffffffffffffffffffffffffffffffffffffff82169050919050565b600061021f826101f4565b9050919050565b600061023182610214565b9050919050565b61024181610226565b811461024c57600080fd5b50565b60008151905061025e81610238565b92915050565b60006020828403121561027a576102796101ef565b5b60006102888482850161024f565b91505092915050565b61029a81610214565b82525050565b60006020820190506102b56000830184610291565b92915050565b60805161195d6102e4600039600081816105cf0152818161090d0152610bb6015261195d6000f3fe6080604052600436106100c65760003560e01c806379ba50971161007f578063c9d27afe11610059578063c9d27afe146102a1578063e30c3978146102ca578063f2fde38b146102f5578063fc0c546a1461031e5761011b565b806379ba5097146102345780638da5cb5b1461024b578063b1610d7e146102765761011b565b8063013cf08b146101205780630d61b519146101615780632ab09d141461018a5780632e80d9b6146101b557806349c2a1a6146101e0578063715018a61461021d5761011b565b3661011b573373ffffffffffffffffffffffffffffffffffffffff167f8e47b87b0ef542cdfa1659c551d88bad38aa7f452d2bbb349ab7530dfec8be8f346040516101119190610d75565b60405180910390a2005b600080fd5b34801561012c57600080fd5b5061014760048036038101906101429190610dc6565b610349565b604051610158959493929190610e9e565b60405180910390f35b34801561016d57600080fd5b5061018860048036038101906101839190610dc6565b610414565b005b34801561019657600080fd5b5061019f6105ad565b6040516101ac9190610d75565b60405180910390f35b3480156101c157600080fd5b506101ca6105b3565b6040516101d79190610d75565b60405180910390f35b3480156101ec57600080fd5b5061020760048036038101906102029190610f5d565b6105c1565b6040516102149190610d75565b60405180910390f35b34801561022957600080fd5b5061023261074a565b005b34801561024057600080fd5b5061024961075e565b005b34801561025757600080fd5b506102606107ed565b60405161026d9190610feb565b60405180910390f35b34801561028257600080fd5b5061028b610816565b6040516102989190610d75565b60405180910390f35b3480156102ad57600080fd5b506102c860048036038101906102c39190611032565b61081d565b005b3480156102d657600080fd5b506102df610add565b6040516102ec9190610feb565b60405180910390f35b34801561030157600080fd5b5061031c6004803603810190610317919061109e565b610b07565b005b34801561032a57600080fd5b50610333610bb4565b604051610340919061112a565b60405180910390f35b600260205280600052604060002060009150905080600001805461036c90611174565b80601f016020809104026020016040519081016040528092919081815260200182805461039890611174565b80156103e55780601f106103ba576101008083540402835291602001916103e5565b820191906000526020600020905b8154815290600101906020018083116103c857829003601f168201915b5050505050908060010154908060020154908060030154908060040160009054906101000a900460ff16905085565b60006002600083815260200190815260200160002090508060030154421015610472576040517f08c379a0000000000000000000000000000000000000000000000000000000008152600401610469906111f1565b60405180910390fd5b8060040160009054906101000a900460ff16156104c4576040517f08c379a00000000000000000000000000000000000000000000000000000000081526004016104bb9061125d565b60405180910390fd5b806002015481600101541161050e576040517f08c379a0000000000000000000000000000000000000000000000000000000008152600401610505906112c9565b60405180910390fd5b6969e10de76676d08000008160010154101561055f576040517f08c379a000000000000000000000000000000000000000000000000000000000815260040161055690611335565b60405180910390fd5b60018160040160006101000a81548160ff021916908315150217905550817f712ae1383f79ac853f8d882153778e0260ef8f03b504e2866e0593e04d2b291f60405160405180910390a25050565b60035481565b6969e10de76676d080000081565b6000683635c9adc5dea000007f000000000000000000000000000000000000000000000000000000000000000073ffffffffffffffffffffffffffffffffffffffff166370a08231336040518263ffffffff1660e01b81526004016106269190610feb565b602060405180830381865afa158015610643573d6000803e3d6000fd5b505050506040513d601f19601f82011682018060405250810190610667919061136a565b10156106a8576040517f08c379a000000000000000000000000000000000000000000000000000000000815260040161069f906113e3565b60405180910390fd5b6000600360008154809291906106bd90611432565b919050559050600060026000838152602001908152602001600020905084848260000191826106ed929190611656565b5062093a80426106fd9190611726565b8160030181905550817f9c770c289ab5bf7e57cb1d23c8ceae993aea46eb64847072fd3d78ca60d3e4328686604051610737929190611796565b60405180910390a2819250505092915050565b610752610bd8565b61075c6000610c5f565b565b6000610768610c90565b90508073ffffffffffffffffffffffffffffffffffffffff16610789610add565b73ffffffffffffffffffffffffffffffffffffffff16146107e157806040517f118cdaa70000000000000000000000000000000000000000000000000000000081526004016107d89190610feb565b60405180910390fd5b6107ea81610c5f565b50565b60008060009054906101000a900473ffffffffffffffffffffffffffffffffffffffff16905090565b62093a8081565b60006002600084815260200190815260200160002090508060030154421061087a576040517f08c379a000000000000000000000000000000000000000000000000000000000815260040161087190611806565b60405180910390fd5b8060050160003373ffffffffffffffffffffffffffffffffffffffff1673ffffffffffffffffffffffffffffffffffffffff16815260200190815260200160002060009054906101000a900460ff1615610909576040517f08c379a000000000000000000000000000000000000000000000000000000000815260040161090090611872565b60405180910390fd5b60007f000000000000000000000000000000000000000000000000000000000000000073ffffffffffffffffffffffffffffffffffffffff166370a08231336040518263ffffffff1660e01b81526004016109649190610feb565b602060405180830381865afa158015610981573d6000803e3d6000fd5b505050506040513d601f19601f820116820180604052508101906109a5919061136a565b9050600081116109ea576040517f08c379a00000000000000000000000000000000000000000000000000000000081526004016109e1906118de565b60405180910390fd5b60018260050160003373ffffffffffffffffffffffffffffffffffffffff1673ffffffffffffffffffffffffffffffffffffffff16815260200190815260200160002060006101000a81548160ff0219169083151502179055508215610a6a5780826001016000828254610a5e9190611726565b92505081905550610a86565b80826002016000828254610a7e9190611726565b925050819055505b3373ffffffffffffffffffffffffffffffffffffffff16847fcbdf6214089cba887ecbf35a0b6a734589959c9763342c756bb2a80ca2bc9f6e8584604051610acf9291906118fe565b60405180910390a350505050565b6000600160009054906101000a900473ffffffffffffffffffffffffffffffffffffffff16905090565b610b0f610bd8565b80600160006101000a81548173ffffffffffffffffffffffffffffffffffffffff021916908373ffffffffffffffffffffffffffffffffffffffff1602179055508073ffffffffffffffffffffffffffffffffffffffff16610b6f6107ed565b73ffffffffffffffffffffffffffffffffffffffff167f38d16b8cac22d99fc7c124b9cd0de2d3fa1faef420bfe791d8c362d765e2270060405160405180910390a350565b7f000000000000000000000000000000000000000000000000000000000000000081565b610be0610c90565b73ffffffffffffffffffffffffffffffffffffffff16610bfe6107ed565b73ffffffffffffffffffffffffffffffffffffffff1614610c5d57610c21610c90565b6040517f118cdaa7000000000000000000000000000000000000000000000000000000008152600401610c549190610feb565b60405180910390fd5b565b600160006101000a81549073ffffffffffffffffffffffffffffffffffffffff0219169055610c8d81610c98565b50565b600033905090565b60008060009054906101000a900473ffffffffffffffffffffffffffffffffffffffff169050816000806101000a81548173ffffffffffffffffffffffffffffffffffffffff021916908373ffffffffffffffffffffffffffffffffffffffff1602179055508173ffffffffffffffffffffffffffffffffffffffff168173ffffffffffffffffffffffffffffffffffffffff167f8be0079c531659141344cd1fd0a4f28419497f9722a3daafe3b4186f6b6457e060405160405180910390a35050565b6000819050919050565b610d6f81610d5c565b82525050565b6000602082019050610d8a6000830184610d66565b92915050565b600080fd5b600080fd5b610da381610d5c565b8114610dae57600080fd5b50565b600081359050610dc081610d9a565b92915050565b600060208284031215610ddc57610ddb610d90565b5b6000610dea84828501610db1565b91505092915050565b600081519050919050565b600082825260208201905092915050565b60005b83811015610e2d578082015181840152602081019050610e12565b60008484015250505050565b6000601f19601f8301169050919050565b6000610e5582610df3565b610e5f8185610dfe565b9350610e6f818560208601610e0f565b610e7881610e39565b840191505092915050565b60008115159050919050565b610e9881610e83565b82525050565b600060a0820190508181036000830152610eb88188610e4a565b9050610ec76020830187610d66565b610ed46040830186610d66565b610ee16060830185610d66565b610eee6080830184610e8f565b9695505050505050565b600080fd5b600080fd5b600080fd5b60008083601f840112610f1d57610f1c610ef8565b5b8235905067ffffffffffffffff811115610f3a57610f39610efd565b5b602083019150836001820283011115610f5657610f55610f02565b5b9250929050565b60008060208385031215610f7457610f73610d90565b5b600083013567ffffffffffffffff811115610f9257610f91610d95565b5b610f9e85828601610f07565b92509250509250929050565b600073ffffffffffffffffffffffffffffffffffffffff82169050919050565b6000610fd582610faa565b9050919050565b610fe581610fca565b82525050565b60006020820190506110006000830184610fdc565b92915050565b61100f81610e83565b811461101a57600080fd5b50565b60008135905061102c81611006565b92915050565b6000806040838503121561104957611048610d90565b5b600061105785828601610db1565b92505060206110688582860161101d565b9150509250929050565b61107b81610fca565b811461108657600080fd5b50565b60008135905061109881611072565b92915050565b6000602082840312156110b4576110b3610d90565b5b60006110c284828501611089565b91505092915050565b6000819050919050565b60006110f06110eb6110e684610faa565b6110cb565b610faa565b9050919050565b6000611102826110d5565b9050919050565b6000611114826110f7565b9050919050565b61112481611109565b82525050565b600060208201905061113f600083018461111b565b92915050565b7f4e487b7100000000000000000000000000000000000000000000000000000000600052602260045260246000fd5b6000600282049050600182168061118c57607f821691505b60208210810361119f5761119e611145565b5b50919050565b7f566f74696e67206e6f7420656e64656400000000000000000000000000000000600082015250565b60006111db601083610dfe565b91506111e6826111a5565b602082019050919050565b6000602082019050818103600083015261120a816111ce565b9050919050565b7f416c726561647920657865637574656400000000000000000000000000000000600082015250565b6000611247601083610dfe565b915061125282611211565b602082019050919050565b600060208201905081810360008301526112768161123a565b9050919050565b7f50726f706f73616c206661696c65640000000000000000000000000000000000600082015250565b60006112b3600f83610dfe565b91506112be8261127d565b602082019050919050565b600060208201905081810360008301526112e2816112a6565b9050919050565b7f51756f72756d206e6f7420726561636865640000000000000000000000000000600082015250565b600061131f601283610dfe565b915061132a826112e9565b602082019050919050565b6000602082019050818103600083015261134e81611312565b9050919050565b60008151905061136481610d9a565b92915050565b6000602082840312156113805761137f610d90565b5b600061138e84828501611355565b91505092915050565b7f4e6565642031303030204c494220746f2070726f706f73650000000000000000600082015250565b60006113cd601883610dfe565b91506113d882611397565b602082019050919050565b600060208201905081810360008301526113fc816113c0565b9050919050565b7f4e487b7100000000000000000000000000000000000000000000000000000000600052601160045260246000fd5b600061143d82610d5c565b91507fffffffffffffffffffffffffffffffffffffffffffffffffffffffffffffffff820361146f5761146e611403565b5b600182019050919050565b600082905092915050565b7f4e487b7100000000000000000000000000000000000000000000000000000000600052604160045260246000fd5b60008190508160005260206000209050919050565b60006020601f8301049050919050565b600082821b905092915050565b6000600883026115167fffffffffffffffffffffffffffffffffffffffffffffffffffffffffffffffff826114d9565b61152086836114d9565b95508019841693508086168417925050509392505050565b600061155361154e61154984610d5c565b6110cb565b610d5c565b9050919050565b6000819050919050565b61156d83611538565b6115816115798261155a565b8484546114e6565b825550505050565b600090565b611596611589565b6115a1818484611564565b505050565b5b818110156115c5576115ba60008261158e565b6001810190506115a7565b5050565b601f82111561160a576115db816114b4565b6115e4846114c9565b810160208510156115f3578190505b6116076115ff856114c9565b8301826115a6565b50505b505050565b600082821c905092915050565b600061162d6000198460080261160f565b1980831691505092915050565b6000611646838361161c565b9150826002028217905092915050565b611660838361147a565b67ffffffffffffffff81111561167957611678611485565b5b6116838254611174565b61168e8282856115c9565b6000601f8311600181146116bd57600084156116ab578287013590505b6116b5858261163a565b86555061171d565b601f1984166116cb866114b4565b60005b828110156116f3578489013582556001820191506020850194506020810190506116ce565b86831015611710578489013561170c601f89168261161c565b8355505b6001600288020188555050505b50505050505050565b600061173182610d5c565b915061173c83610d5c565b925082820190508082111561175457611753611403565b5b92915050565b82818337600083830152505050565b60006117758385610dfe565b935061178283858461175a565b61178b83610e39565b840190509392505050565b600060208201905081810360008301526117b1818486611769565b90509392505050565b7f566f74696e6720656e6465640000000000000000000000000000000000000000600082015250565b60006117f0600c83610dfe565b91506117fb826117ba565b602082019050919050565b6000602082019050818103600083015261181f816117e3565b9050919050565b7f416c726561647920766f74656400000000000000000000000000000000000000600082015250565b600061185c600d83610dfe565b915061186782611826565b602082019050919050565b6000602082019050818103600083015261188b8161184f565b9050919050565b7f4e6f20766f74696e6720706f7765720000000000000000000000000000000000600082015250565b60006118c8600f83610dfe565b91506118d382611892565b602082019050919050565b600060208201905081810360008301526118f7816118bb565b9050919050565b60006040820190506119136000830185610e8f565b6119206020830184610d66565b939250505056fea2646970667358221220ea8080d78ba6d36920f3a1ae06dab414fbdf98e3300882a0a0112c346914639064736f6c634300081c0033",
  "linkReferences": {},
  "deployedLinkReferences": {}
}